:020000040800F2
:10000000F0FF0010C111070899F600086D200508DF
:10001000611207086112070861120708000000005A
:1000200000000000000000000000000095F600083D
:1000300091F60008000000008DF600082121050857
:1000400061120708611207086112070861120708A8
:1000500061120708611207089D5B0508655B0508CA
:100060002D5B0508F55A0508BD5A050885F20608F6
:1000700075F2060865F2060855F2060841F2060810
:100080002DF2060819F20608611207086112070826
:10009000611207086112070861120708855A0508EE
:1000A000E50C0508650D0508D50C0508890D050842
:1000B000590D0508490D0508390D0508BD0007084B
:1000C000C5000708AD000708B5000708611207085A
:1000D0006112070865480508ED46050875450508DD
:1000E0004D5A050861120708510F0108C50C050893
:1000F000F50C0508B50C0508190D050805F20608EC
:10010000611207081DBC0608290D050861120708C1
:10011000FD430508854205089DF5030889F5030898
:10012000F1F10608DDF10608C9F10608B5F1060887
:10013000A1F1060861120708611207086112070899
:1001400061120708611207086112070821F0000810
:100150008DF1060879F1060865F106080D410508DC
:100160009D000708A500070861120708611207082B
:100170006112070861120708611207086112070877
:08018000611207086112070873
:0828000000C00F0800001008E1
:10800000F0B401292A4C2B4D23684FF0000694BF91
:1080100000270127EE626662A6626763676B47EA24
:1080200042076763EE63EC6B002A38D144F4957421
:10803000EC631C6824F001041C601C68E407FCD499
:10804000490289085960D8601968EAB921F04001ED
:10805000196019498B421DD018494FF47410C8603B
:10806000196841F01E011960596941F08001596198
:10807000196841F00101196022B90E4AD36A43F030
:108080000803D362F0BC704741F0400119600A490F
:108090008B42E1D14FF0746041F8500CE0E744F0BE
:1080A0001A04EC63EC6A44F00804EC62C1E700BF18
:1080B000701E0020002C0140586402400064024001
:1080C0001148002302461178032902F1060216D056
:1080D0000133062BF7D10D4AD36D052B0ED0591C59
:1080E00003EB4303D16500EB4303032040F2EB3184
:1080F00040F2FF32187059809A807047704703EB46
:10810000430300EB4303F0E7A81E0020701E00208D
:10811000084AD2E91831994209D0D118013391F8AF
:1081200068100170C3F30A03136601207047002032
:10813000704700BF701E0020044BD3E91830C01AEE
:10814000C0F30A00C0F50060704700BF701E002039
:10815000012380F8AD30704707B501A8FFF7D8FFBD
:108160000028FAD09DF8040003B05DF804FB034B2F
:10817000D3E91830C01AC0F30A007047701E0020FF
:1081800001207047024BC3F86828C3F86C18704789
:10819000701E0020024BC3F87028C3F87418704793
:1081A000701E00207047704730B4114DD5E9182378
:1081B0009A1AC2F30A020A44B2F5006F12D8A1B1AA
:1081C00001444A1E013810F8014FE918824203F1B8
:1081D000010381F86840C3F30A03F4D16B66002001
:1081E00030BC7047022030BC70470846F8E700BF3B
:1081F000701E002070B5144C94F87838002BFBD119
:10820000F9B101444E1E451E02E0012049F08AFEEC
:10821000D4F87C38D4F880280133C3F30A0393429E
:10822000F3D0D4F87C28D4F87C3815F8011F224408
:108230000133C3F30A03B54282F88418C4F87C38CA
:10824000E6D1002070BD00BF701E002010B5094CA3
:1082500054F8743C084611465BB154F8743C052B45
:1082600007D1002A54F8703C03DDFFF7C3FF54F830
:10827000703C10BD682F002010B590F8AC100023A2
:1082800080F8AC3081B10B4C54F8742C72B154F8B6
:10829000742C052A0CD1983054F8703CFFF7AAFFD3
:1082A00054F8703C012010BD0120FCE71046FAE7AD
:1082B0001846F8E7682F0020002280F8AD20DBE7A1
:1082C00090F8AC20531C0244DBB280F8AC3082F84A
:1082D000981090F8AD200AB1132B00D9CCE7704765
:1082E000212838B50C4605D022282FD0202813D0BD
:1082F000002038BD0029FBD0072AF9D11A4B53F8CA
:108300006C0C13F8681C13F8672C13F8663C20609B
:1083100021716271A371EBE70029E9D0072AE7D147
:10832000124AD2F86C381BB1D2F86808096898472D
:108330000D4B256820796179A27943F86C5C03F8CC
:10834000680C03F8671C03F8662CD1E70029CFD02E
:10835000022ACDD1054AD2F87438002BC8D009883A
:10836000D2F870089847C3E7682F0020701E0020DD
:10837000024B002043F8740C704700BF682F0020A8
:10838000054B064A0020052142F8741CC3F8740806
:10839000C3F86C08704700BF701E0020682F0020D3
:1083A000704700BF704700BF704700BF704700BFF5
:1083B000704700BF704700BF704700BF04230148EB
:1083C0000B8070478801002010B4074A074B12F851
:1083D000640C122403F114020C8001280CBF18460F
:1083E00010465DF8044B7047682F00208C01002078
:1083F00000487047302F002000487047302F002081
:10840000034B13F83C0C032894BF00200120704755
:10841000682F0020034B13F83C0C032894BF002066
:1084200001207047682F0020034B13F83C0C0038E4
:1084300018BF0120704700BF682F0020A0B18268DC
:108440000D4B12B107229A7070471978DA60032930
:108450004FF004000CBF80214FF48071C3E901117B
:108460001A611A7598707047034B41F2E47101224A
:108470005A545A70704700BF2C9E00200378022B7C
:1084800010D0006908B9012070470C4B1B78032BF2
:108490000EBF0B4B80B24FF6F773984294BF00208B
:1084A000012070470549436841F650028A58B3EBF2
:1084B000422F2CBF01200020704700BF2C9E0020BF
:1084C000F7FFFF0F0378022B14D030B4104A436833
:1084D000006941F6480402F5C2511559096841F690
:1084E0003C042B4012595B0A023801FB0030104457
:1084F00030BC7047064B426841F6340141F630000B
:108500005958185800EB410000EB5220704700BF4B
:108510002C9E00202DE9F84F494B98420ED003F5D0
:108520006853083398424ED0464B0020C3E94200BE
:10853000A3F80401A3F81001BDE8F88F414C424FA5
:10854000DFF810810223C4F89C3004F1A006002556
:10855000FB6AAB42294605F1010503D0D4F820019E
:108560005BF052FD94F82431D4F8202186F82430B1
:108570003262304641465BF05BFFD4F89C309D424E
:1085800006F13006E4DB002384F81231D4E92A0333
:10859000D4F89C10B4F8A420B4F8B050C4F830312A
:1085A00012FB01F203FB01F3A4F80421B4F8A610B6
:1085B000264AA4F81051C4E94203A4F80611C4F8ED
:1085C00000210120B8E71F4C1F4F0223C4F89C3044
:1085D00004F1A0054FF0000B4FF4806A4FF0400902
:1085E0004FF40068FA6A01265A455946B34403D04D
:1085F000D4F820015BF008FDD4F8201194F8242170
:10860000296285F824204FF400314FF00062C5E95B
:108610000212A5F804A0A5F81090A5F80680AE7483
:10862000FFF74EFD28466E765BF04EFED4F89C2098
:10863000074B45F8303B9345D4DB84F81261A5E73E
:108640001971EF00682F002088010020183D0708ED
:10865000EC3C07081940EF002DE9F04FD84DDFF84A
:108660009083DFF89CA307460E4693460FCD444601
:108670002DED068B0FC40FCD0FC495E8070089B010
:108680009AF83631CDF808B084E80700CDE90476D1
:10869000042B00F26781DFE813F0D201650160016D
:1086A0000500E2019FEDC78ADFEDC78AC749C8F818
:1086B0001C10C749C74BC84AC8F8181002990029AE
:1086C00018BF134638EE887AF5EE006A86EE87AA60
:1086D000C24EDFF830B3C8F824300025DFEDC07A91
:1086E0009FEDC09A28EE278AF0EE679A059BAB4271
:1086F00000F02D811BF8013B0AEB030292F83B418D
:10870000002C00F03481DFF800C3002202E0152ABB
:1087100000F02D8102EB420157001CF80100A0423D
:1087200002F10102F3D1514491F85911002900F0EE
:1087300084812046039348F037FE039B81464846D8
:10874000039348F051FE0178002940F01081039B0B
:1087500057440133DBB2032287F8993187F8982117
:10876000B9F1000F00F003812709013F052F04F044
:108770000F0000F24D819C4C04EB4701B1F884C01E
:108780004CFA00F111F0010100F04281012101FADF
:1087900000F0013800EA0C002744039368F042FB24
:1087A00097F89070DFF864C2039B38440CEBC00765
:1087B0000322FB71BA715CF83000776100F13F432E
:1087C00003F57E0304EB9324012194F8983099F883
:1087D000082003F01F045B09032B01FA04F100F0E9
:1087E0001D81042B00F02481022B00F01C81BB882A
:1087F0000693B3FA83F3C3F11F03C3F3CC0100EB79
:10880000810103F007030C6A9B000F279F4024EAB5
:1088100007040C620C6A02FA03F323430B6202237F
:1088200006A907930DF06AFC029B002B00F0AE80B6
:10883000BAF8343100EE103AB8EEC00AFCEEC07A55
:1088400017EE901AD9F80030684A934200F09B80E6
:10885000A2F58062934200F0968002F58042934236
:1088600000F0918002F58062934200F08C8002F566
:108870008062934200F08780DAF8C42450084FF6F3
:10888000FF73B0FBF1F21A44120CB0FBF2F2029843
:10889000002800F08480B2FBF1F19AF83601042838
:1088A0008BB200F0828007EE902AF8EE676A66EEDF
:1088B000887A29EE677A9AF8370104990091A8EE30
:1088C000A67A019049463046C6ED027A86ED037AD3
:1088D00036F04CFB002D40F39D807368D8F83820AB
:1088E000934200F09980012D00F09480D8F8502038
:1088F000934200F09180022D00F08C80D8F868201F
:10890000934200F08980032D00F08480D8F8802005
:10891000934200F08180042D7CD0D8F898209342B7
:108920007AD0052D76D0D8F8B020934274D0062D99
:1089300070D0D8F8C820D31A18BF012301350122FE
:10894000082D3374727406F118067FF4CFAE2848F0
:1089500009B0BDEC068BBDE8F08F9FED268AF0EEE6
:10896000488AA3E69FED248AF0EE488A9EE6234AD1
:10897000194BC8F81C200020C8F8243009B0BDEC01
:10898000068BBDE8F08FDAF8C40478E7B0EE4A0A47
:1089900069F086FCFCEEC07A17EE901A52E79AF85E
:1089A0003601042819467FF47EAF07EE901A07EED1
:1089B000102AF8EE677AF8EE476A67EEA97A78E748
:1089C000443D0708ACC5A737ACC5A736D1AB0308F3
:1089D0000D270508C9A40308012705083C0000105D
:1089E0006F12833A00007A44EC3C0708000401400F
:1089F00008000010282930386F120339C1A7030876
:108A0000682F0020AE300020C03000202C31002024
:108A1000716109E7012391E700238FE7114B1C6C7B
:108A200021431964E3E60F4B5C6C21435964DEE695
:108A30000C4B1C6B21431963D9E689467FE69FEDF9
:108A40000A8A0A4BC8F818300023094A0493012304
:108A50000293C8F81C20074BF0EE488A32E69FEDDF
:108A6000068AEEE7003802406F12833A0D270508A8
:108A7000D1AB03080127050800000000F8B5104E2F
:108A8000D6F8C444054600680F4664080DF03AFA6B
:108A9000B4FBF7F1B1F5803F03D3012CFAD9640898
:108AA000F6E72246284689B248F032FA054BC6F866
:108AB000883D28460449BDE8F840002248F06CB9DA
:108AC000682F002075520208F03C002010B5044CBD
:108AD00004480A4621460CF061F8204610BD00BF4C
:108AE000F83C002004D7070810B5044C04480A4697
:108AF00021460CF053F8204610BD00BFF83C002082
:108B000014D7070810B5044C04480A4621460CF057
:108B100045F8204610BD00BFF83C002020D70708CC
:108B200010B5044C04480A4621460CF037F820469C
:108B300010BD00BFF83C00202CD7070810B5044C2E
:108B400004480A4621460CF029F8204610BD00BF13
:108B5000F83C002038D7070810B50C4C94F89A2040
:108B6000002344F8403C0AB1C4F8903E63F0B6F8E4
:108B700020B10423022004F83C3C10BD54F8703CA2
:108B800044F84C3C092304F83C3C10BD682F0020FD
:108B900070B50E4D15F83C3C042B04460E460BD028
:108BA000082B07D155F8443C83420CD0FFF7D4FF83
:108BB000022801D0012070BD082345E9114605F8BF
:108BC0003C3C022070BD022070BD00BF682F002019
:108BD00038B50379234C002B14BF0123002304F87C
:108BE000103C03D1002304F83C3C38BD94F9972E87
:108BF000002103204CF0D2F80028F3D04568284625
:108C00004CF0BAF884F899000028EBD094F8953E1F
:108C1000003B18BF0123284684F89A3062F020FCFC
:108C20000AF01CFF38B914F8483C04F83C0C013336
:108C300004F8483C38BD63F03BF940B114F8483CB7
:108C40000022013304F8483C04F83C2C38BD54F8A9
:108C5000702C04F8480C012344F84C2C04F83C3CDC
:108C600038BD00BF682F002010B563F021F958B15E
:108C70000C4C14F8483C0133DBB2072B04F8483C99
:108C800003D9002304F83C3C10BD0AF0E7FE00289D
:108C9000F7D054F8703C44F84C3C012304F83C3CB9
:108CA00010BD00BF682F00202DE9F0418A4C14F858
:108CB000105C002D00F0FE8014F83C2C874F02263B
:108CC000531E082B42D8DFE803F0383AA7416F5211
:108CD0001641050063F002F8002840F0F28054F8D5
:108CE0004C3C54F8702CFA3393422CD2FFF7BCFF63
:108CF00014F83C2CE4E762F0F1FF0028EFD054F8C0
:108D0000403C0022012B04F8482C40F2DE8054F84D
:108D1000441C94F89A00013B013144E9111308B155
:108D2000C4F8902E082204F83C2CA2F10805B5FAEC
:108D300085F56D092846BDE8F08104F83C6C62F0C9
:108D4000CDFF002849D114F83C2C531EDBB2022B76
:108D50000AD854F8703C54F84C1C5B1AC82BE4D960
:108D6000FFF782FF14F83C2C042ADED1E2E75B4BCC
:108D70001B6B002BD9D154F8546C54F8703C44F858
:108D80004C3C072204F83C2C002ECED054E918218C
:108D900054F8503C0120B047D5E754F84C3C54F807
:108DA000701C64338B42C0D2D7F82C80B8F1000F0E
:108DB000F3D162F093FF00289AD054F8546C04F871
:108DC000488C042304F83C3C002E78D054E9182148
:108DD00054F8503C4046B047B5E762F025FC002807
:108DE000B1D194F8993E002BA3F10203B3FA83F3B7
:108DF00014BF022201225B0904F8472C04F8463C08
:108E000062F012FC00287FF471AF354A0323926CA4
:108E100044F8382C04F83C3C62F006FC002892D15F
:108E200094F8CC1EB4F8CEEED4F8D07ED4F8D02E80
:108E3000D4F8D06ED4F8D0CE94F8D43E44F8400C98
:108E400004F8321C94F8D50E24F834EC94F8D51EAE
:108E500004F82ECCD4F8D8EE04F82D3CB4F8DECECD
:108E6000B4F8DE3E44F82CEC120CC3F30B1343EAC7
:108E70001C2304F8302CB4F8DE2E000903F00F0395
:108E80003F0E360A01F00F0103F5FA6302F00F02FC
:108E900004F8280C042004F83C0C04F8317C04F895
:108EA0002F6C04F8271C24F8263C04F8242C2846B0
:108EB000BDE8F08104F83C5C2846BDE8F081054639
:108EC00038E7042304F83C3C34E7FAD1FFF744FECA
:108ED00014F83C2C531E39E7682F0020701E002028
:108EE000083E00202DE9F84FBA4C94F8F81E0546CC
:108EF000C1F34001D4F8000F4CF060FD94F8F81E67
:108F0000D4F8FC0EC94301F001014CF057FD002DCF
:108F100000F0CD806E1EB04FB04D5FFA86FB4FF073
:108F20001008D4F8000F4CF02DFDD4F8FC0E4CF0D6
:108F300029FDB4F8083F002B40F0438194F80A1F44
:108F4000D4F80C0F4CF03AFD4FF0FA094FF47A7058
:108F50004FF0010C7B68C3F30803002B40F008813D
:108F6000EFF31183002B40F0038154F8702CA968B3
:108F700054F8703C9A42F8D1D4F8303F9942F4D872
:108F8000D4F82C6F00FB06F35B1AB3FBF6F300FB7F
:108F900002327B68C3F30803002B40F0A880EFF394
:108FA0001183002B40F0A38054F8703CD5F808A042
:108FB00054F8701C8B42F7D1D4F8301F8A45F3D88F
:108FC000D4F82C6F00FB06F1A1EB0A01B1FBF6F11E
:108FD00000FB03139B1AB3F57A7FDAD3B9F10109C9
:108FE000B8D1D4F8000F4CF0CDFCD4F8FC0E4CF006
:108FF000C9FCB4F8083F002B40F0D78094F80A1F52
:10900000D4F80C0F81F001014CF0D8FC4FF0FA0CB1
:109010004FF47A704FF0010E7B68C3F30803002B06
:1090200040F08680EFF31183002B40F0818054F8EC
:10903000702CA96854F8703C9A42F8D1D4F8303FAB
:109040009942F4D8D4F82C9F00FB09F35B1AB3FBC8
:10905000F9F300FB02327B68C3F308034BBBEFF369
:10906000118333BB54F8703CD5F808A054F8701C39
:109070008B42F7D1D4F8301F8A45F3D8D4F82C9F0F
:1090800000FB09F1A1EB0A01B1FBF9F100FB0313AD
:109090009B1AB3F57A7FDED3BCF1010CBCD10BF186
:1090A000FF365FFA86FBBBF1FF0F7FF43AAFBDE8F6
:1090B000F88FEFF3118988F31288AE682B68DB0311
:1090C00044BFC4F828EFAE6854F8703CD4F8281FA9
:1090D0005FFA89F989F31188D4F82C9F0B4400FBBF
:1090E00009F1891BB1FBF9F100FB0313D0E7EFF3A2
:1090F000118E88F31288D5F808A02B68D90344BFD5
:10910000C4F828CFD5F808A054F8703CD4F8281F2C
:109110005FFA8EFE8EF31188D4F82C6F0B4400FB9F
:1091200006F1A1EB0A01B1FBF6F100FB031351E7D5
:10913000EFF3118188F31288D5F808902B68DA03D1
:1091400044BFC4F828EFD5F8089054F8703CD4F820
:10915000282FC9B281F31188D4F82C1F1A4400FBC0
:1091600001F3A3EB0903B3FBF1F300FB023272E757
:10917000EFF3118188F31288AE682B68DB0344BFDC
:10918000C4F828CFAE6854F8703CD4F8282FC9B280
:1091900081F31188D4F82C1F1A4400FB01F39B1BA8
:1091A000B3FBF1F300FB0232F3E6D4F8243F002BCB
:1091B0003FF42CAFD4F8103FC3F8009084F8219FFF
:1091C00024E7D4F8243F002B3FF4BEAE49F0AAF8C0
:1091D000BAE600BF682F002000ED00E010E000E0DC
:1091E0002DE9F84FB74CB84F94F8F81ED4F8000F9B
:1091F000B64DC1F340014CF0E1FB94F8F81ED4F8F1
:10920000FC0EC94301F001014CF0D8FB4FF0050BF7
:109210004FF01008D4F8000F4CF0B4FBD4F8FC0E5B
:109220004CF0B0FBB4F8083F002B40F0438194F8B9
:109230000A1FD4F80C0F4CF0C1FB32264FF47A70A1
:109240004FF0010C7B68C3F30803002B40F007814B
:10925000EFF31183002B40F0028154F8702CA968C1
:1092600054F8703C9A42F8D1D4F8303F9942F4D87F
:10927000D4F82CEF00FB0EF35B1AB3FBFEF300FBFC
:1092800002327B68C3F30803002B40F0A780EFF3A2
:109290001183002B40F0A28054F8703CD5F808A050
:1092A00054F8701C8B42F7D1D4F8301F8A45F3D89C
:1092B000D4F82CEF00FB0EF1A1EB0A01B1FBFEF19B
:1092C00000FB03139B1AB3F57A7FDAD3013EB9D1C1
:1092D000D4F8000F4CF056FBD4F8FC0E4CF052FBC7
:1092E000B4F8083F002B40F0DA8094F80A1FD4F855
:1092F0000C0F81F001014CF061FB4FF0320C4FF488
:109300007A7001267B68C3F30803002B40F0878046
:10931000EFF31183002B40F0828054F8702CA96881
:1093200054F8703C9A42F8D1D4F8303F9942F4D8BE
:10933000D4F82C9F00FB09F35B1AB3FBF9F300FB95
:1093400002327B68C3F308033BBBEFF3118323BBFB
:1093500054F8703CD5F808A054F8701C8B42F7D133
:10936000D4F8301F8A45F3D8D4F82C9F00FB09F1BC
:10937000A1EB0A01B1FBF9F100FB03139B1AB3F552
:109380007A7FDED3BCF1010CBCD10BF1FF3616F0B5
:10939000FF0B7FF43FAFBDE8F88FEFF3118988F33F
:1093A0001288D5F808A02B68DB0344BFC4F8286FE7
:1093B000D5F808A054F8703CD4F8281F5FFA89F952
:1093C00089F31188D4F82C9F0B4400FB09F1A1EB21
:1093D0000A01B1FBF9F100FB0313CFE7EFF3118EA4
:1093E00088F31288D5F808A02B68D90344BFC4F8C5
:1093F00028CFD5F808A054F8703CD4F8281F5FFA9D
:109400008EFE8EF31188D4F82CEF0B4400FB0EF186
:10941000A1EB0A01B1FBFEF100FB031352E7EFF3EE
:10942000118188F31288D5F808902B68DA0344BFBD
:10943000C4F8286FD5F8089054F8703CD4F8282F59
:10944000C9B281F31188D4F82C1F1A4400FB01F330
:10945000A3EB0903B3FBF1F300FB023271E7EFF377
:10946000118188F31288D5F808E02B68DB0344BF2C
:10947000C4F828CFD5F808E054F8703CD4F8282F69
:10948000C9B281F31188D4F82C1F1A4400FB01F3F0
:10949000A3EB0E03B3FBF1F300FB0232F1E6D4F8C9
:1094A000243F002B3FF429AFD4F8103F1E6084F80E
:1094B000216F22E7D4F8243F002B3FF4BEAE48F0E2
:1094C00031FFBAE6682F002000ED00E010E000E078
:1094D00000F01F0240090123032803FA02F304D01D
:1094E00004280CD0022805D07047074A116C0B43A2
:1094F00013647047044A516C0B4353647047024A2B
:10950000116B0B43136370470038024000285FD093
:109510000368374A2DE9F04103F13F4404F57E0426
:1095200002EB9422012492F8982002F01F055209C0
:10953000032A04FA05F456D0042A4FD0022A48D050
:109540008588B5FA85F0C0F11F00C0F3CC0603EBA7
:10955000860600F0070082000F24306A944020EA5B
:1095600004003062306A01FA02F2024300213262E2
:109570004FF0010E0A464FF0030C02270EFA02F8D4
:1095800038EA050002F101021CD118680CFA01F456
:1095900020EA04001860186807FA01F606431E6006
:1095A0009E6826EA04069E6098689860586820EADB
:1095B0000800586058685860D86820EA0400D860ED
:1095C000D868D860102A01F10201D7D1BDE8F08136
:1095D0007047084A556C2C435464B1E7054A156B33
:1095E0002C431463ACE7034A156C2C431464A7E7BF
:1095F000EC3C070800380240134B0268196821EA66
:1096000002011960596821EA0201596019680A4388
:109610001A609968026821EA02019960D96821EA12
:109620000201D9604179102907D001F1804303F587
:109630009E3319680A431A6070479968114399600C
:10964000D9680A43DA607047003C014000286BD0BB
:10965000F0B58388B3FA83F3202B85B00446C3F1B9
:109660001F024CD0314D32484FF00041104405EB01
:10967000820205F6747731FA03F390F8A060C2F81D
:10968000347F05D02B4A116821EA03011160536130
:10969000204600214BF0C2FCA3882268B3FA83F471
:1096A000C4F11F0303F0FC0101F1804101F59C317D
:1096B00003F0030398000F2702F13F438A688740B5
:1096C00022EA070203F57E038A60C3F387238340FF
:1096D00088684FF000420343354422FA04F48B605B
:1096E0004FF44062012302A88DF80E300294ADF8C9
:1096F0000C20FFF781FF95F8783FF02B01D805B0DB
:10970000F0BD0D4B9B5D8DF80430F02103224FF42A
:10971000807301A885F8781F8DF80520ADF8063014
:109720000CF0A8FB05B0F0BD704700BF682F00200B
:10973000EC3C0708003C0140C8D70708002869D066
:10974000F0B58388B3FA83F3202B85B00446C3F1C8
:109750001F024AD0304E314D16444FF0004005EB09
:10976000820230FA03F396F8A060C2F8341F05D0E5
:109770002B4A116821EA0301116053612046002140
:109780004BF04CFCA3882268B3FA83F4C4F11F03A6
:1097900003F0FC0101F1804101F59C3103F003036A
:1097A00098000F2702F13F438A68874022EA0702A8
:1097B00003F57E038A60C3F38723834088684FF0F4
:1097C00000420343354422FA04F48B604FF40062F4
:1097D000012302A88DF80E300294ADF80C20FFF79B
:1097E0000BFF95F8783FF02B01D805B0F0BD0D4B7D
:1097F0009B5D8DF80430F02103224FF4807301A8A3
:1098000085F8781F8DF80520ADF806300CF032FB96
:1098100005B0F0BD704700BFEC3C0708682F002082
:10982000003C0140C8D70708034B53F8082C136AC3
:10983000002BFCD1704700BF682F002010B4B8B1D6
:109840000D4CD4F8803F102B05D15DF8044B052159
:10985000002048F053B903EB4302224482F8851FED
:1098600001210B4482F8840F82F8861FC4F8803FE0
:109870005DF8044B704700BF682F00202DE9F04FC2
:10988000DFF8ACA32DED028B9AF8C81F002297B029
:10989000CAF8B82FCAF8BC2FCAF8C02FCAF8C42F0C
:1098A000CAF8B42F19B19AF8C92F8AF8B42F9AF8C8
:1098B000CA2F1AB19AF8CB2F8AF8C32F9AF8CE2F55
:1098C0001AB19AF8CF2F8AF8BE2F9AF8CC2F1AB176
:1098D0009AF8CD2F8AF8B92F9AF8D03F05935A1EDF
:1098E000D3B257B203937B1C00F0AA80C54AC64E80
:1098F00052F83790029602EBC702002312790193C7
:1099000008EE102A1D4634469846267839463046D9
:109910004DF0FAFC83463046BBF1000F1ED04BF0F1
:1099200059FDEA1D1321D2B220B14FF0000E827111
:1099300080F807E04BF0FCFF20784DF017FD4FF06A
:10994000070308F1010223714FF0010384F802803C
:109950006070CDF804B05FFA82F8E3700135042D31
:1099600004F10504D1D118EE100A029ECDF8108042
:10997000FFF7AEFDA549A64A4868024042F44032CE
:109980004A600FB9019B5BB9A24C4820FFF7A0FDCC
:109990002046022166F0AAFBA26842F00102A26002
:1099A0009A489C4A4168BAF8D24F41F4000141609C
:1099B000516821F480515160916B21F4401141F4C0
:1099C00080119163D16841F46001D160956B85F499
:1099D0004011C1F3015101EB81011F2000FA01FC8C
:1099E00025EA0C0C112505FA01F141EA0C019163FD
:1099F000D16841F4E011D160956BC5F30151C1F11B
:109A00000401C9B201EB810188404FF0100C25EA36
:109A100000000CFA01F108439063E4B1BAF8D41FD6
:109A2000CAF8DC4FA1B1BAF8D62FCAF8E01F62B16C
:109A3000019B7948521A90FBF2F2CAF8E42F6BB9F5
:109A400017B0BDEC028BBDE8F08F744A1288EFE7C7
:109A5000734A1188E7E7734A1488DFE74846049998
:109A600066F044FB684B012003F114080723F278E9
:109A7000441CE4B252B375783279A5F10A0101EBC6
:109A8000410105EB450C092D03FA01FE03FA0CFB1D
:109A900002FA01F140F2A080D9F80C2022EA0E0E61
:109AA00041EA0E01C9F80C10421E02EB82021F218E
:109AB000062801FA02FC05FA02F273D8D9F834102C
:109AC00021EA0C010A432046C9F834200536B04586
:109AD000CDD1D9F80820039942F40072C9F80820C2
:109AE000D9F8082042F48072C9F80820D9F8082073
:109AF000574442F00102C9F8082097F9D82F0220F4
:109B00004BF04CF9044600289AD0466830464BF09A
:109B100033F9454A431E242101FB032393F84C509B
:109B2000002D8DD1059983F84D10062283F84C2025
:109B3000002885D030464BF01FF964F0DDF96068ED
:109B40000CF002F907A80CF0C1F8049EA26837488F
:109B50000792012E8CBF4FF4806300230D9309F10F
:109B60004C034FF48072CDE90A56089309904FF4E4
:109B7000003360680C9507A94FF400674FF4005656
:109B8000CDE91023CDE90E760CF0B2F862681368C7
:109B900043F001031360D9F8083043F08043C9F85B
:109BA00008304DE7C11FA0F10D0201EB81014FF01C
:109BB0001F0E02EB82020C280EFA01FC0EFA02F0D4
:109BC00005FA01F113D8D9F8302022EA0C0211432A
:109BD0002046C9F8301079E7D9F8101002FA0CF2D3
:109BE00021EA0B0B42EA0B02C9F810205CE7D9F816
:109BF0002C1005FA02F221EA00010A432046C9F8B6
:109C00002C2063E79C3D07081C3F002000230140F7
:109C1000E030FCFF00200140803801002E7AFF1F59
:109C20002C7AFF1F2A7AFF1F88010020503F002056
:109C3000682F00202DE9F04101F108070C4680460D
:109C400011463846164669F0E1FEF0B10022012EB9
:109C5000C8E90046C8F80C00C8F81400C8F8082085
:109C6000C8F810200BD004460123194601332546BD
:109C70009E423C44C5E90042F7D107FB01000023A6
:109C8000C0E90033C8F818300120BDE8F08100BFFA
:109C900070B5474E96F8F04F04EB440306EBC30350
:109CA000650093F8F43F032B70D8DFE803F05B2ADC
:109CB0001F02254406EBC505D5F8F80F002872D120
:109CC0003C4B13F8A43C9C4260D0013404F00302E6
:109CD000934286F8F02F59D002EB420406EBC404FD
:109CE0000223C4F8F80F84F8F43F70BD2B1906EB7B
:109CF000C303D3F8F82F72B1013AC3F8F82F00204C
:109D000070BD2B1906EBC303D3F8F82F002AF3D14B
:109D1000022283F8F42F254406EBC50505F5805291
:109D20001378013BDBB2137093BB234A214BD2F86B
:109D3000701213F8A46CD5F8FC0F621C02F0030239
:109D40004B1E0324B242034485F8F44FB3FBF1F0F9
:109D5000C5F8F80F1AD0994218D80138C5F8F80F8D
:109D6000012070BD4CF0F8FF80B1134B2C44D3F8A8
:109D7000702206EBC404012102F51C5384F8F41F81
:109D80000F33B3FBF2F3C4F8F83F70BD012070BD90
:109D9000094BD3F87022012002F2E733B3FBF2F350
:109DA000C5F8F83F70BD0138C5F8F80F002070BD48
:109DB000682F00206040002088010020054B13F828
:109DC000A32C002AFBD1D3F8C03A03491B6801F148
:109DD0000C00184760400020C03F002030B504460A
:109DE00083B00D461C20012169F010FE019020B1C6
:109DF0002CB901A80AF0BAFB204603B030BD084ACE
:109E00000379B2F87412056143F001034D1C04811B
:109E100004830180A2F87452037103B030BD00BF07
:109E20008801002010B5044650B1064BD3F8C43A5F
:109E3000984701230022606484F830301846A264F9
:109E400010BD00BF604000202DE9F84F3249DFF817
:109E5000D4B091F8991E01240229074619461046EC
:109E6000CBF82C404FF000022C4C1D4618BF7F024F
:109E7000FEF7C6F82A4B63626B02A362E36A40F204
:109E8000FF5943F093034FF400704FF48A62E3628A
:109E90000121C4F83890A0601020E26061F010FD4C
:109EA000012D40F251434E46C4F83890CA4640F264
:109EB00052488EBF4FF0120998464FF011090A25FB
:109EC000C4F838A00121A7604846C4F80C8061F0AE
:109ED000F7FC03464FF0000C40F277420121372097
:109EE000A6632BB900231846CBF82830BDE8F88FBD
:109EF000A663C4F808C0E26061F0E2FC013DA6631D
:109F00000028EFD015F0FF05DAD10346CBF82C502E
:109F1000CBF82830BDE8F88F682F0020002C0140D6
:109F200000E1F505701E00202DE9F8431B4C14F8E4
:109F30003C6C042E0546894690461F4608D0082EE4
:109F400002D00020BDE8F883FEF706FE0228F8D113
:109F500001234A4628460021FFF776FF68B1FEF745
:109F600083FE54F8545C002DEBD0002254F8503C92
:109F700054F85C1C1046A847E3E754F8703C44F8DA
:109F8000609C052244E9158744F85C5C04F83C2C8D
:109F900044F84C3C0120BDE8F88300BF682F002046
:109FA0002DE9F84F2F49DFF8C49091F8991E1E460D
:109FB00002292D4B07464FF0010418BF4702012E1E
:109FC00040F259481C6398BF4FF48B683B46934658
:109FD000474640F2FF55B0468CBF4FF0190A4FF08C
:109FE000180A0A241E4640F2FF53C9F838300121EE
:109FF000C9F808605046C9F80C7061F061FC03466E
:10A000004FF0000C40F2774201213720C9F8385058
:10A01000A3B9584641460122FDF7F2FF4646134ACE
:10A02000134B536276029662D36A43F09103D36274
:10A030000D4B002108469962BDE8F88FC9F83850E9
:10A04000C9F808C0C9F80C2061F03AFC013CC9F815
:10A0500038500028DDD014F0FF04C4D1024B1C633B
:10A06000BDE8F88F682F0020701E0020002C0140F2
:10A0700000E1F5052DE9F0473A4C05460E46174636
:10A08000984614F83C0C04280CD0082807D154F842
:10A09000443CAB4206D0FEF75FFD0228F1D0012020
:10A0A000BDE8F087D4F8909E44F8606CC9F34F2166
:10A0B0000F2944F85C5C4FEA592324D854F840AC8B
:10A0C000BAF1000F1FD094F89A20E2B1B9F5005F01
:10A0D00013D02548314648444FF4007269F05CFCC7
:10A0E00009F50073C3F34F211029C4F8903E4FEADD
:10A0F000532302D0BAF1010F25D19BB2013BED1AD7
:10A10000194E0B4600E0012332462846062601255B
:10A11000002144F8547C44F8508C04F8585C04F84E
:10A120003C6CFFF73DFF0028BAD0FEF79DFD54F8C8
:10A13000546CA6B1284654F8503C54F85C1C0022DC
:10A14000B0470320ACE754F8442C0AF1FF33013246
:10A15000042144E9112304F83C1C0220A0E7032059
:10A160009EE700BF682F00202C6E0020A8B138B5F4
:10A17000044618300D460AF0A1FC60B1084B04619A
:10A18000B3F8742245610A21541C01728281A3F83C
:10A190007442083038BD002038BD0020704700BF31
:10A1A000880100202DE9F04FD0F808A0DAF80880E7
:10A1B00083B0B8F1000F2FD01D464BB307468B4636
:10A1C0009146002613E0AC4228BF2C4600221146DF
:10A1D00009EB06033846009476B94B4601225946EE
:10A1E000C04760B12D1B264412D0DAF808807C8865
:10A1F000002CE8D12C46E9E7C0470028F2D1BAF894
:10A20000003000200133AAF8003003B0BDE8F08F21
:10A21000012003B0BDE8F08F404603B0BDE8F08FE9
:10A2200003681A78012A01D00020704793F904309E
:10A23000034A582101FB032393F8E10AC0B2704797
:10A240006040002010B50C4CD4F878321B78022BFB
:10A2500010D1D4F880024BF0ABFBD4F8800208B1E7
:10A260002123C38001214BF063FB04484CF064F9C7
:10A27000A4F87C0210BD00BF8801002080969800E1
:10A280002DE9F04FC7687E6885B016B11D46FB6AA0
:10A290001BB1002005B0BDE8F08F91460122F862A5
:10A2A00004468271002D42D09846A388DFF888B01A
:10A2B0000391B3B1AB42039928BF2B469A46009352
:10A2C000012209EB080341442046B047F8B10228B7
:10A2D00012D0B5EB0A05D04429D0A3887E68002BA4
:10A2E000E8D10399009509EB080301224144204677
:10A2F000B04758B102281AD13A88002301321846D3
:10A300003A80FB62A37105B0BDE8F08FAA46DBF886
:10A31000D01B05E0DBF8D03B62885B1A9342EBD898
:10A32000A379012BF6D0A379032BD2D1E4E7002344
:10A33000FB620120A371ADE7604000202DE9F047EA
:10A340009DF82090EAB1202804468A469846154692
:10A3500015D8032815D9031F1C2B12D8DFE803F0EA
:10A3600018111111181111111111111118111111C8
:10A370001111111111111111111111111500802854
:10A3800003D000273846BDE8F087BAF1000FF8D0B7
:10A3900020480AF093FB06460028F2D01E49B1F887
:10A3A0007432C38100F108070133A1F874325246B8
:10A3B0003846214609F0C8FF034620B3082C7567CC
:10A3C000C6F81C8013D0102C11D0144BC9F1010910
:10A3D000D3F8F02B5FFA89F986F80C90002AD1D1D6
:10A3E000D3F8E42BC3F8F02B3846BDE8F0870B4BCD
:10A3F000D3F8F02B4FF0010986F80C90002AEFD02B
:10A400003846BDE8F087394602481F460AF01CFB73
:10A41000B8E700BF344C00208801002060400020D5
:10A4200070B57A4CD4F83C0C86B0B0B1D4F8403C4E
:10A430009BB1D4F8443C83B1D4F8483C6BB1D4F818
:10A440004C3C53B1D4F8503C3BB1D4F8545C25B1EA
:10A45000012309220C21A84710B9002006B070BDC5
:10A4600028200AF059FBD4F8403CD4F83C0C0DF1FC
:10A470000202082198470028EFD09DF902309DF88C
:10A480000220002BE9DA5606E7D5D4F8445CD4F86C
:10A490003C0C122301AA1021A8470028DDD09DF80A
:10A4A00005209DF804109DF80700130943EA0113E5
:10A4B000C90918BFA3F5805303EBD3735B109DF854
:10A4C0000610C4F8183C12029DF8083002F47062BD
:10A4D000114315054FEA03139DF8092043EA0033A1
:10A4E00048BFA1F58051C4F81C1C180343EA12119F
:10A4F000BDF80A304FEA02425BBA02F470229BB206
:10A5000048BFA1F5801113431203BDF80C20C4F815
:10A51000201C48BFA3F58013C4F8243C53BA9AB258
:10A520001E04BDF80E3048BFA2F580325BBA1D0490
:10A53000C4F8282C9AB2BDF8103048BFA2F580327A
:10A540005BBA1804C4F82C2C9AB2BDF81230D4F8B7
:10A550003C0C48BFA2F580325BBA1904C4F8302C19
:10A560009AB2BDF8143048BFA2F580325BBAC4F885
:10A57000342C9AB21B0448BFA2F58032C4F8382CA0
:10A58000D4F84C3C54220621984700283FF465AF8C
:10A590000425D4F8486CD4F83C0C84F8FC5B0DF12D
:10A5A000030380222821B04700283FF456AF9DF8CE
:10A5B0000320D4F84C3CD4F83C0C42F05402072160
:10A5C000984700283FF449AFD4F84C3CD4F83C0CF1
:10A5D00084F8FD5B0C220921984700283FF43DAF29
:10A5E0000723D4F8545CD4F83C0C1A460821A84739
:10A5F00000283FF432AF064AB2F87432A4F8F43BB4
:10A600000133A2F87432012028E700BF6040002027
:10A610008801002038B5044610300D460AF04EFA85
:10A6200068B1074B4461B3F8742205720024551CCD
:10A630000A21028284614181A3F87452083038BD36
:10A640008801002038B505460A460C4606482946CA
:10A650004CF0F2F845F0800103484BF097FF231AC5
:10A660005842584138BD00BF00040020F0B53B4CB3
:10A67000D4F878522B78022B95B018D0012B02D049
:10A68000002015B0F0BD95F904506B1CF8D0022DD8
:10A69000F6DC0091134694F87C120246284665F0D9
:10A6A00081FA0028ECD0284665F05EFBE9E72B6ACA
:10A6B000002BE5D10DF10F0C8DF80F0000260120C5
:10A6C0000027CDE90833CDE90A12CDE90E670593DD
:10A6D0008DF81C300D9310931293CDF810C0069096
:10A6E0008DF830008DF84400EFF31180102383F3D0
:10A6F0001288D4F878321B6A13B3069B04AE324634
:10A700001BB1D3691432002BFBD12B6A13B39968A8
:10A7100039B993420AD0196829B15B689968002950
:10A72000F7D01433F3E70E4AC3E90026C0B280F332
:10A730001188D4F87822136A002BFCD10120A0E7FD
:10A7400004ABC0B22B6280F3118804F51E7064F074
:10A7500053FEEEE7024A1A60FFDE00BF88010020C8
:10A760000004002030B505682B78022B83B017D089
:10A77000012B02D0002003B030BD044695F904003F
:10A780000A460B49451C81F85C3CF3D00228F1DCF9
:10A7900001F65C410091217965F05EFA03B030BDAD
:10A7A0002B6A002BE6D101224CF046F80120E2E7AB
:10A7B0006040002013B53B4C00238DF80730D4F8DF
:10A7C0006C3C1B7803F0FD02012A05D194F8702C33
:10A7D00012B90C2284F8702C022B1ED0032B2ED021
:10A7E00001220B21304860F011FD042047F09AFB54
:10A7F0002D4801230DF10702002160F029FD0028FA
:10A800003BD09DF80730482B37D1284BC4F8603C2B
:10A81000274BC4F8643C02B010BDD4F8740C4BF064
:10A82000C7F8D4F8740C08B13523C38001214BF06C
:10A830007FF820484BF080FEA4F8700CD0E746F279
:10A84000A8110E2035F044F9D4F86C3C5868002368
:10A8500080F88C301222372160F0ACFCD4F86C3CCC
:10A860000D225868242160F0A5FCD4F86C3C3022FD
:10A8700058686A2160F09EFCB2E7D4F86C3C1A7804
:10A88000022A03D0032A07D00020C4E7D4F8740CAE
:10A890004BF076FC0020BEE758681022372160F0AC
:10A8A00089FCF1E760400020CC4C0020AFB20608E4
:10A8B00031B30608809698002DE9F04FC768BE684E
:10A8C00085B016B11D46FB6A1BB1002005B0BDE87E
:10A8D000F08F91460122F86204468271002D42D029
:10A8E0009846A388DFF888B00391B3B1AB420399CF
:10A8F00028BF2B469A460093012209EB08034144E6
:10A900002046B047F8B1022812D0B5EB0A05D04472
:10A9100029D0A388BE68002BE8D10399009509EBE4
:10A920000803012241442046B04758B102281AD1F9
:10A930003A880023013218463A80FB62A37105B0C1
:10A94000BDE8F08FAA46DBF8D01B05E0DBF8D03B72
:10A9500062885B1A9342EBD8A379012BF6D0A379D6
:10A96000032BD2D1E4E70023FB620120A371ADE702
:10A970006040002030B51E4B0021024603F66454AF
:10A98000C3F8702D83B0C4E901110D25C3F8641D0F
:10A99000C3F8741D83F86A1D204680220A2183F8BB
:10A9A000645D08F029F810B9002003B030BD142010
:10A9B0000AF0B2F829460DF107020123204607F0FC
:10A9C000B1FF0028F0D09DF80730FF2BECD10DF13E
:10A9D00007022046092107F0A7FF38B19DF807308C
:10A9E00013F0030F0CBF01200020DEE70120DCE79D
:10A9F000604000202DE9F04FD0F808A0DAF80C8074
:10AA000083B0B8F1000F2FD01D464BB307468B46DD
:10AA10009146002613E0AC4228BF2C460022114686
:10AA200009EB06033846009476B94B460122594695
:10AA3000C04760B12D1B264412D0DAF80C807C8808
:10AA4000002CE8D12C46E9E7C0470028F2D1BAF83B
:10AA5000003000200133AAF8003003B0BDE8F08FC9
:10AA6000012003B0BDE8F08F404603B0BDE8F08F91
:10AA70002DE9F04F8D4F8E4C85B00E4600234FF4DC
:10AA8000F0722021054607F67C5087F8783D019644
:10AA900068F0F4FF07F65C7020214FF4F07268F064
:10AAA000EDFFDFF81CC2834932274FF0100E4FF440
:10AAB0007A700126DCF80430C3F30803002B40F061
:10AAC000D480EFF31183002B40F0CF8054F8702C2A
:10AAD000D1F8089054F8703C9A42F7D1D4F8303F3E
:10AAE0009945F3D8D4F82CAF00FB0AF3A3EB090384
:10AAF000B3FBFAF300FB0232DCF80430C3F30803C3
:10AB0000002B40F09180EFF31183002B40F08C80FC
:10AB100054F8703CD1F808B054F8709C4B45F7D10C
:10AB2000D4F8309FCB45F3D8D4F82CAF00FB0AF90A
:10AB3000A9EB0B09B9FBFAF900FB03939B1AB3F5D8
:10AB40007A7FD9D3013FB5D15B4F97F84520002AD2
:10AB500065D097F84630013B022B60D803EBC30168
:10AB600003EB830E07EBC100014607EBCE0C07F1A8
:10AB70004808C1F870819CF8E88007F1E80101EB12
:10AB8000CE0100F5BA704FF0010EB8F1020FB865B2
:10AB9000B96487F8D4E000F0EB81DBB203EBC303C8
:10ABA00007EBC303D3F86031CCF8EC30BBB3022120
:10ABB0004FF480738CF8E810ACF8F43007F15C01C6
:10ABC00007F19803CCE940134FEA121808F1FF3857
:10ABD000B8F1050F02F00F0200F28181DFF8E49076
:10ABE00009EB4803B3F8841041FA02F3DB0740F1A4
:10ABF0007681012303FA02F2013A02EA010066F0CB
:10AC000011F909EB08022D4B92F89020104403EB48
:10AC1000C00038658379002B56D0412B54D06FF09B
:10AC2000010005B0BDE8F08FEFF3118A8EF31288B2
:10AC3000D1F808B00B68DB0344BFC4F8286FD1F823
:10AC400008B054F8703CD4F8289F5FFA8AFA8AF367
:10AC50001188D4F82CAF4B4400FB0AF9A9EB0B097F
:10AC6000B9FBFAF900FB039368E7EFF311898EF360
:10AC70001288D1F808A00B68DA0344BFC4F8286F23
:10AC8000D1F808A054F8703CD4F8282F5FFA89F95D
:10AC900089F31188D4F82C9F1A4400FB09F3A3EB25
:10ACA0000A03B3FBF9F300FB023225E76040002002
:10ACB000682F002010E000E0585100202C310020C7
:10ACC00000ED00E0EC3C07082323C38009214AF093
:10ACD000A5F93B6D002B00F07B811A68B86D9B884D
:10ACE0001383D4F8C424BB49B1EB920F4FEA92030B
:10ACF00080F05C81B74AB2EB530F80F03F81B2EB3A
:10AD0000930F80F04081B2EBD30F80F04181B2EB22
:10AD1000131F80F04281B2EB531F80F04381B2EBEE
:10AD2000931F80F041814FF48073A7F84C300028C6
:10AD30003FF475AFA84B4FF000084FF6FF7AC3F809
:10AD40000480A3F5F871C7F83882A3F80880A7F843
:10AD500042A2FFF70BFA0346C7F83C0200283FF473
:10AD60005EAF9E4A8668B2F87412D6F80490A7F8CF
:10AD70003A1201318DF80DA0A2F87412B9F1000F4A
:10AD800006D0012342460DF10D01C847D7F83C32E9
:10AD900018460DF10E0201238C21FFF703FA9DF8EE
:10ADA0000E301B2B40F007813B6D012287F83822C3
:10ADB0000BB12322DA800DF10F0201230A21D7F80B
:10ADC0003C024FF040088DF80F80FFF713FE0DF1A5
:10ADD0000D028A21D7F83C020123FFF7E3F99DF821
:10ADE0000D1097F84420C1F3801187F84412002A0F
:10ADF00000F0A080022A00F08380D4F8C434784A9E
:10AE0000B2EB930F80F0D480B2EBD30F80F0B88018
:10AE1000B2EB131F80F0B980B2EB531F80F0BA8001
:10AE2000B2EB931F80F0BB80B2EBD31F06D2B2EB24
:10AE3000132F34BF4FF480784FF0800897F84822E2
:10AE4000A7F84682182A13D16648019C00225B08A5
:10AE5000B3FBF8F3A0FB030310465B0B68F30F0092
:10AE600064F30F0263F31F4061F31F42C7E99420AC
:10AE7000D7F83C02A7F84C80022401230DF10F0201
:10AE800000218DF80F40FFF7B5FDC82046F07EFF8A
:10AE9000D7F83C0201230DF10F028021FFF782F960
:10AEA000C0B19DF80F3003F002038DF80D30002B78
:10AEB000EED16A78AB78297887F85812C2F120026F
:10AEC000C3F11003002087F8592287F85A3205B0E1
:10AED000BDE8F08F9DF80D30002BD9D1E9E7D4F80B
:10AEE000C4243C494FF0000CB1EB920F4FEA92039F
:10AEF000C7F850C0FFF4FEAE0223A7F84C3019E7A4
:10AF0000D4F8C4343848B0EB930F5CD2B0EBD30F15
:10AF100036D2B0EB131F38D2B0EB531F3AD2B0EB9E
:10AF2000931F3CD2B0EBD31F34BF4FF080084FF0DB
:10AF3000400883E7D4F8C434264AB2EB930F37D2E3
:10AF4000B2EBD30F1CD2B2EB131F1ED2B2EB531FC6
:10AF500020D2B2EB931F22D2B2EBD31FBFF46EAF5D
:10AF6000B2EB132F34BF4FF480784FF0800865E7C1
:10AF70009CF8F53073448CF8F53025E60423D4E6CC
:10AF80004FF004085AE70823CFE64FF0080855E7CA
:10AF90001023CAE64FF0100850E72023C5E64FF013
:10AFA00020084BE74023C0E68023BEE60223BCE630
:10AFB0004FF0020842E7386D38B120214AF02EF8F0
:10AFC0004FF0FF302DE6904638E74FF0FF3028E68F
:10AFD000B86D86E6404B4C0090530020880100205D
:10AFE000809698005917B7D1002D310101460148CC
:10AFF0004BF0CCBAB4530020014488420ED010B4B8
:10B000000346074C074813F8012B04FB00F0994254
:10B0100080EA0200F7D15DF8044B704701487047A1
:10B0200093010001C59D1C81094B93F83631042B17
:10B0300008D9053B032B08D801231A4600B1037039
:10B040001046704700230122F8E700231A46F5E76F
:10B05000682F002010B5084C0020D4F81C33984706
:10B06000D4F800331BB1B4F8080300219847042337
:10B0700084F8103310BD00BF58510020F0B40D68A3
:10B0800000240CE0BCF1050F18D8A0F137030A2BFF
:10B0900014D104EB840415F8010B03EB4404A0F174
:10B0A0003003DEB2092EA0F16107A0F1410CF0D906
:10B0B000052FE7D8A0F157030A2BEAD00D601460E2
:10B0C000F0BC70479FED727A07EE901A20EE070AE7
:10B0D000F8EE677A27EE800AFDEEC07A17EE903A16
:10B0E0002033402B00F2C480DFED6A7AB4EEE70A29
:10B0F000F1EE10FAF0EE407A0CDD9FED676ADFEDBD
:10B10000676AB0EE677AB4EEE67AF1EE10FA77EE9F
:10B11000C67AF6DC9FED627AF4EEC77AF1EE10FAA9
:10B120000CD59FED5D6ADFED5F6AB0EE677AB4EE35
:10B13000E67AF1EE10FA77EE867AF6D49FED5A7A37
:10B14000F4EEC77AF1EE10FA00F38A809FED577A99
:10B15000F4EEC77AF1EE10FA44BF9FED517A77EE24
:10B16000677A27EEA76ADFED525A9FED527ADFED3C
:10B17000526AA6EE257A67EE865AE6EE076AB6EEC2
:10B18000007AE5EEA67A27EE877ADFED476A70EE61
:10B19000267ABDEEE76A16EE103A2033402B64D8CB
:10B1A000B4EEE60AF1EE10FA0CDDDFED3B5A9FED4E
:10B1B0003B6AF0EE676AF4EEC66AF1EE10FA77EEDB
:10B1C000E57AF6DCDFED366AF4EEE67AF1EE10FAB7
:10B1D0000CD5DFED315A9FED336AF0EE676AF4EE7D
:10B1E000C66AF1EE10FA77EEA57AF6D4DFED2E6A94
:10B1F000F4EEE67AF1EE10FA3DDDDFED266A76EE4A
:10B20000E77A67EEA75A9FED2A5A9FED2A6ADFED8B
:10B210002A6AA5EE856A27EEA55AE5EE866AB8EE9B
:10B22000006AE5EE267A67EE867AC7EE206AB7EE08
:10B23000006A76EE865A76EE666A86EE257A80EDAC
:10B24000091A67EE277A66EE876AC0ED017AC0EDCB
:10B25000037A80ED007A80ED027AC0ED046A7047CF
:10B260009FED0C7A77EE677A7BE7DFED147ADCE707
:10B270009FED127A89E7DFED0D6AF4EEE67AF1EEE2
:10B2800010FA44BFDFED066A76EEE77AB9E700BF51
:10B2900027D4D236DB0F4940DB0FC940E4CB16413F
:10B2A000DB0F49C0E4CB16C1DB0FC93FDB0FC9BFC1
:10B2B00092E741B99730083C15A82ABE000000006B
:10B2C0002DE9F843DFF8EC83E34DD8ED3E7A95F8AD
:10B2D0002043F8EE670A08F27C632DED028BC3ED84
:10B2E000000A002C76D1DFF8D0C398F88876C8F829
:10B2F00084469CF80040002F40D0B5F826339FEDDF
:10B30000D76A9FEDD77A07EE903AF8EE677A20EE8B
:10B31000877AC6EE276A0023012FC5F8283376EE18
:10B32000876AC7EE267AC5EDCB7A27D0022FC5F8FB
:10B330003033C5EDCD7A21D0032FC5F83833C5EDB4
:10B34000CF7A1BD0042FC5F84033C5EDD17A15D084
:10B35000052FC5F84833C5EDD37A0FD0062FC5F8B1
:10B360005033C5EDD57A09D0072FC5F85833C5ED50
:10B37000D77A03D0C5F86033C5EDD97AB94B9FEDC4
:10B38000BA6A93F856319FEDB97A9FEDB90AB94A76
:10B3900007EE903AF8EEE77A9CF8583BC6EE276A3B
:10B3A0001C4414FB07F7FFB207EE907A60EE870AA1
:10B3B000F8EEE77AC2ED006AA7EEA00A67F07CF823
:10B3C000BDEC028BFCEEC07A17EE903A88F8D837C5
:10B3D000BDE8F883BCEEE06A9FEDA77A95F82133CB
:10B3E000B5F824239FEDA52ADFEDA56ADFF8C8C2D2
:10B3F00098F88876C8F884C6F8EE465A07EE903A70
:10B4000087EE255A8CF8004007EE102AB5F8222363
:10B410008CED025A16EE103AF8EE677A06EE102A14
:10B42000B8EEC77A27EE822AB8EE466A67EE266A39
:10B43000CCF81430012322EE252ACCED017A8CEDD4
:10B44000036ACCED046A88F88036002F96D0DFEDD1
:10B450008D7A9FED8D4ADFED8D5AC7EE871AC7EBC7
:10B460000716A7EB07190CEBC6064FEAC9094FF000
:10B47000000EB1EE611A9FED866A09EB06009FEDA2
:10B48000853ADFED853ADFED856A0346002207EE57
:10B49000902AB8EEE77A27EE027AFDEEC77A17EE29
:10B4A000901A2031402900F2D080B4EEC47AF1EE37
:10B4B00010FAF0EE477A0CDDDFED794A9FED795A0C
:10B4C000F0EE672AF4EEC52AF1EE10FA77EEE47A90
:10B4D000F6DCF4EEE57AF1EE10FA0CD5DFED704A09
:10B4E0009FED715AF0EE672AF4EEC52AF1EE10FADC
:10B4F00077EEA47AF6D4F4EEC67AF1EE10FA40F3C1
:10B500009A8074EE677A27EEA75AB0EE630AA5EE2A
:10B51000030ADFED664AE5EE004A65EE272AB7EE3C
:10B52000005AE2EEA47AB0EE458AF0EE454AA1EE6A
:10B53000A78AE1EE274AC5EE088A84EE880A77EEEC
:10B54000067ABDEEE75A15EE101A203140296FD861
:10B55000B4EEC67AF1EE10FA0CDD9FED515A9FED74
:10B56000517AF0EE674AF4EEC74AF1EE10FA77EE40
:10B57000C57AF6DCF4EEE57AF1EE10FA0CD59FED23
:10B58000485A9FED497AF0EE674AF4EEC74AF1EE69
:10B5900010FA77EE857AF6D4F4EEC67AF1EE10FA68
:10B5A0003CDD74EE677A27EEA75AF0EE632AE5EEEB
:10B5B000032A9FED3E7AA5EE227A65EE274AB8EE81
:10B5C000005AE4EE877A67EE857A87EE887A013250
:10B5D000A24203F1280343ED048A03ED037A03ED4D
:10B5E000017A43ED028A83ED000AC3ED056AC3EDDB
:10B5F000026AC3ED016AC3ED046AC3ED036AFFF694
:10B6000046AF783086427FF43AAF0EF5707EBEF5D5
:10B61000346F06F570767FF42EAF6EE69FED247AD8
:10B62000F4EEC77AF1EE10FA48BF75EEE77ABAE7A2
:10B63000F0EE667AC9E79FED1E5AF4EEC57AF1EE98
:10B6400010FA48BF75EEE77A5DE7B7EE000AF0EE54
:10B65000408AB0EE408A72E75851002083F9223EBA
:10B66000BD378635682F0020555555406E12833AF8
:10B6700048E1FA3EDC0700100060EA4827D4D236E1
:10B680000AD7233C00004842DB0F4940DB0F49C08A
:10B69000DB0FC93F92E741B99730083C000000003A
:10B6A000DB0FC940E4CB1641E4CB16C115A82ABE76
:10B6B000DB0FC9BF080000105C1800102DE9F04F27
:10B6C00007EE900A2DED068B9FEDF07AF04BDFED43
:10B6D000F16AB3F86823F04F93F86E53C7F82C085B
:10B6E000B8EE679A0AEE102A87EE095AB3F86A2371
:10B6F000C7F8E85783B008EE102AB3F86C23DFEDE3
:10B70000E77AB8EE4AAA08EE902AB8EEC88A3AEE6E
:10B710000A7AF8EEE88AB4EEC78AF1EE10FA68EE1B
:10B72000A77AB4EEE65A07F2DC73B8BFB0EE478AE8
:10B730000022F1EE10FA83ED028A83ED01AAC3ED37
:10B74000007AC7F8EC2700F1038307EE905AF8EE71
:10B75000E77AB7EE007AC7EE279AD14BDFF878A3E5
:10B76000194614319C4601919AF8A82003F12C0443
:10B77000F6EE005A65EE256AF7EE007A86EE887AD4
:10B78000DFEDC83ADFEDC84A9FEDC86AD3ED05AAE0
:10B79000B4EEE77AF1EE10FAB8BFB0EE677ABDEE1C
:10B7A000C77AB0EE004A17EE106AB8EEC77AC7F84B
:10B7B000886AC5EE076A87EE875A66EEA36AACEC24
:10B7C000015A8AEE267AC8EE267A37EE257A77EE87
:10B7D000A57AB4EEC47AF1EE10FAB8BFB0EE447AAE
:10B7E000F4EEE47AF1EE10FABDEEC77A88BFF0EE1F
:10B7F000647A17EE100AFDEEE77A00F1FF3B17EED0
:10B80000901ABBF1230FA8BF4FF0230BCCED006AB9
:10B81000012E01F1010CB8BF0126BCF1230F2BEA68
:10B82000EB7BE04629EE066AA8BF4FF02308E3450C
:10B83000C8BFD846C7F8940AC7F8981A83ED046AB7
:10B84000A8EB0B0797FBF6F70137002A40F0E380DF
:10B85000DFED970ADFEDA15A9FEDA12A9FED955AE2
:10B86000DFEDA32A9FEDA33ADFEDA33A9FED924AC5
:10B87000DFEDA21A0AF1AC0107EE902AB8EEE76AF2
:10B8800066EE207A37EEA57AFDEEC76A16EE903A9C
:10B890002033402B00F21582F3EE026AB4EEE66A22
:10B8A000F1EE10FA0CDDDFED904ADFED8E6AB0EEBE
:10B8B000471AB4EEE61AF1EE10FA37EE647AF6DCC7
:10B8C000B4EEC57AF1EE10FA0CD5DFED874ADFED64
:10B8D000876AB0EE471AB4EEE61AF1EE10FA37EEC8
:10B8E000247AF6D4B4EEE57AF1EE10FA40F3FE8154
:10B8F000DFED726A36EEC77A67EE076AB0EE431A7A
:10B90000A6EEA21AB0EE630AA1EE260A67EE264A58
:10B91000FDEEE76AA4EE807A16EE903A2033402BD3
:10B9200027EE047A00F2D781DFED656AB4EEE66AAD
:10B93000F1EE10FA40F300829FED6B0A9FED691A59
:10B94000F0EE676AF0EE664AF4EEC14AF1EE10FAE4
:10B9500076EEC06AF6DC9FED591AF4EEC14AF1EEBC
:10B9600010FA13D59FED601ADFED604AB0EE660A5B
:10B97000B4EEE40AF1EE10FA76EE816AF6D4DFED69
:10B98000506AB4EEE66AF1EE10FA0CDD9FED566AED
:10B99000DFED546AF0EE674AF4EEE64AF1EE10FA93
:10B9A00077EEC67AF6DCF4EEC57AF1EE10FA0CD535
:10B9B0009FED4D6ADFED4D6AF0EE674AF4EEE64A20
:10B9C000F1EE10FA77EE867AF6D4F4EEE57AF1EE3F
:10B9D00010FA40F38381DFED396A76EEE77A67EE9D
:10B9E000A76AF0EE434AE6EEA24AB0EE631AA4EE6E
:10B9F000A61A27EEA66AE6EE017A67EE847A01328D
:10BA0000242A81ED007AC1ED017A01F108017FF469
:10BA100033AFDFED2CAA4FF0000944E9059B44E960
:10BA200002764FF490720021204644F80C8C68F0A6
:10BA300025F84FF49072A018002168F01FF8224BEF
:10BA400004F51574A342E8D1019BDFED207AC3ED24
:10BA500000AA012329EE279A8AF8A830002D00F0C9
:10BA60002B81DFED1B7A1B4E9FED142ADFED112A8F
:10BA7000C7EEA81AA6F1140406F5117738EE4A8A23
:10BA8000B1EE611A69EE889A3EE000BF0024744965
:10BA9000585100200000FA44080000100AD7233C47
:10BAA000940A0010398E633C00000C429C534937C5
:10BAB000C3B8B23DDB0F49C072F97F3FDB0F49408D
:10BAC00000001042BC297E3FBC11001027D4D236A2
:10BAD00000004842F807001000110010DB0FC93FBA
:10BAE00000000000E4CB1641DB0FC940E4CB16C1D7
:10BAF00092E741B99730083C15A82ABEDB0FC9BFB1
:10BB0000000010C20000807F5FED0C5A5FED0C6AF0
:10BB1000234630460022B7EE005A07EE902AF8EE90
:10BB2000E77AB6EE007A77EE877AB0EE4A7AA7EE39
:10BB3000A97AF0EE477A29EE077AE0EC017AFDEE79
:10BB4000C77A17EE901A2031402900F2D780B4EE60
:10BB5000C27AF1EE10FAF0EE477A0CDD1FED1E4AC4
:10BB60005FED204AB0EE676AB4EEE46AF1EE10FAD7
:10BB700077EEC47AF6DCF4EEE27AF1EE10FA0CD548
:10BB80001FED274A5FED274AB0EE676AB4EEE46A1C
:10BB9000F1EE10FA77EE847AF6D4F4EEE57AF1EE6F
:10BBA00010FA40F3B58072EE677A67EEA74A5FED50
:10BBB000303A1FED304A1FED306AA4EEA34A67EE1B
:10BBC000A43AA4EE246AF0EE454AE3EE867AB0EE9B
:10BBD000456AE1EE274AA1EEA76A84EE864AC5EEE1
:10BBE000064A77EE257AFDEEE73A13EE901A2031F9
:10BBF000402900F28A80B4EEE57AF1EE10FA0CDD0D
:10BC00001FED473A5FED493AB0EE677AB4EEE37A5A
:10BC1000F1EE10FA77EEC37AF6DCF4EEE27AF1EEAA
:10BC200010FA0CD51FED503A5FED503AB0EE677A3E
:10BC3000B4EEE37AF1EE10FA77EE837AF6D4F4EE0E
:10BC4000E57AF1EE10FA6DDD72EE677A27EEA73A2B
:10BC50005FED590A5FED593A1FED597AE3EE203A4C
:10BC600063EE270AA3EE237AF8EE003AE0EE877A35
:10BC700067EEA37A87EE867A0132AA4203F128039F
:10BC8000C3ED0B4A83ED0C7A83ED0E7AC3ED0D4ABA
:10BC900083ED0F4A83ED145AC3ED116AC3ED106AA8
:10BCA000C3ED136AC3ED126A7FF437AFC834A742FD
:10BCB00006F114067FF428AF03B0BDEC068BBDE897
:10BCC000F08FFDEEE76AB0EE427A16EE903A20333E
:10BCD000402B7FF629AEF0EE427A90E6F4EEE17A60
:10BCE000F1EE10FA48BF75EE677A78E6B4EEE17AC5
:10BCF000F1EE10FA48BF35EE477AFDE5B7EE004A9F
:10BD0000F0EE444AB0EE446A6BE7F0EE667AB1E7D3
:10BD10001FED866AF4EEC67AF1EE10FA48BF72EEB5
:10BD2000E77A42E71FED8B7AF4EEC77AF1EE10FA6C
:10BD300048BF72EEE77A89E75FED8F6AB4EEE66A94
:10BD4000F1EE10FA48BFF0EE676A3FF50BAE2AE657
:10BD50005FED949AC7F8E8271546FEE408480023EB
:10BD600002461178022902F1060204D00133062BA3
:10BD7000F7D10020704703EB430300EB430070470B
:10BD8000A81E002000B50021084B83B00846C3F868
:10BD9000701333F0C1F80422054B01930DEB02013F
:10BDA000062033F0ADF803B05DF804FB58510020D5
:10BDB0005475C52A70B5461E00F13105344614F895
:10BDC000011F601E801BFF29C0B201D033F0A4F810
:10BDD000AC42F4D1A02059F02BF80121022033F01D
:10BDE0009BF840F2E93401E0013C04D04220FFF727
:10BDF000FDF80028F8D16220FFF7F8F8132124207D
:10BE000033F08AF82520092133F086F8BDE8704028
:10BE1000A02059F00DB800BF0D4B0E49D3F8C43423
:10BE20000A8810B40C4C5B08A4FB034322F45C7238
:10BE30009B0C01381204013B012480B2120C9BB20E
:10BE40000A80C8620B858C825DF8044B704700BF86
:10BE5000682F0020000C004083DE1B4338B50C4CDB
:10BE60000546A11CD52253F08BF92B68A342C5E9E6
:10BE70000043A3EB04000AD004F14002611C2960D6
:10BE8000237802F8013BD5E90041A142F6D138BD43
:10BE9000CC54002010B5204B84B0C82403F56D713C
:10BEA00003F275322128CDE9022183F8744318D0BA
:10BEB0000CD802281ED0082825D102A801900FF026
:10BEC0009BF90198FFF7CAFF04B010BD29281AD1C9
:10BED00002A801900FF044F80198FFF7BFFF04B0EB
:10BEE00010BD02A801900FF085F80198FFF7B6FF8A
:10BEF00004B010BD02A801900FF0CAF90198FFF735
:10BF0000ADFF04B010BD02A801900FF0EBF801984E
:10BF1000FFF7A4FF04B010BD5851002010B582B047
:10BF20000A788DF80720040A18238DF804308DF85C
:10BF300006008DF8054058F03BFE01AA0348114663
:10BF400004234AF019FD02B010BD00BFB453002015
:10BF500010B582B0040A192200238DF801408DF833
:10BF600000200C468DF803308DF8020058F020FEBA
:10BF70006A460548114605234AF0FEFC9DF8043048
:10BF8000237002B010BD00BFB453002010B58CB0B8
:10BF900000234CF20502044601A9CDE90633CDE9A0
:10BFA0000833ADF800208DF8023003220B930123F3
:10BFB000CDE903128DF814308DF82830CDF808D073
:10BFC0004AF020FD204602A94AF0FAF820464AF03D
:10BFD00019FD9DF806000CB010BD00BF2DE9F0431F
:10BFE000764D774F83B005F138002422002167F0A9
:10BFF00045FD97F8F5430023EB65002C39D1714ED0
:10C00000D6F8003153B39B6A43B36F4898478368AF
:10C0100023B303886D4F013B9BB2BC4638460021D9
:10C020000678032E00F106001CD001310629F7D155
:10C0300000223978022907F1060700F09E800132BC
:10C04000062AF6D1E96D052908D0481C02FB01C279
:10C05000E86502200021938010705180204603B0D3
:10C06000BDE8F083062303FB01514B8F013B9BB2DC
:10C07000DEE797F8F40307F57F73C7F8F83310B9D4
:10C08000504E0024BCE749F0A5F9C7F8040418B1E4
:10C0900083790BB1412BF3D121464D484AF006FA82
:10C0A00004460028ECD0D7F8F833474A9868C3F81C
:10C0B0009C2008B12023C380092149F039FCD7F81E
:10C0C000F833404E986849F073FC4248D7F8F8833B
:10C0D0004AF032FA4FF00109A8F804003220C6F8FD
:10C0E000208186F8249145F01DFF0423D7F8F8033A
:10C0F0004FF0000C0DEB03029F21CDF804C04AF075
:10C1000047FB9DF805809DF804309DF806104FEA26
:10C11000082848EA034848EA0108414606F58070C5
:10C1200058F086F900287FF46BAF4046FCF7F2F92F
:10C13000034600287FF464AF9DF806009DF80520B3
:10C140009DF80710000240EA0240234A084390424B
:10C1500017D0C6E94233A6F80431A6F81031FCF72F
:10C16000D9F9804600287FF44BAF97F8F40349F0E3
:10C1700031F94AF005F8444642E7062101FB02C2C4
:10C1800067E7164AC6F804214FF400334FF0006207
:10C19000C6F808314023A6F81031C6F80C2186F8FD
:10C1A0001291FBF78DFF06F5807086F8199158F013
:10C1B0008BF80B4BC6F8003122E700BF701E002041
:10C1C00058510020682F002068300020A81E002051
:10C1D00054550020404B4C0021AAEF0000040008F9
:10C1E000EC3C07082DE9F041C54BC64EC64DC74C87
:10C1F0000822C3F88820336B82B043F00103336315
:10C2000007464FF4C052284640F20233884669463A
:10C21000CDE9002309F072FF6B6AC4F8808A23F429
:10C2200070436B626B6AC4F8887A43F420436B6294
:10C230006B6AB749C4F8841A23F470236B626B6A83
:10C24000B448C4F89C0443F420236B62736CB24975
:10C25000C4F8A01443F480437364736BAF48B049CF
:10C26000C4F8AC0443F0800302257363AD4F84F837
:10C27000A454AD4EAD4DC4F8F0144FF0A043C4F833
:10C28000A834AB4AC4F8B87403F53463A1F5D0718F
:10C29000C4F8F454C4F8BC64C4F8F834C4F8C01446
:10C2A0000123DFF8BCC2C4F8B4C407F51077A5F5C4
:10C2B000E465A6F5A066A1F58C61C4F8FC74C4F829
:10C2C000B054C4F8686584F8A73405F5A0755361C7
:10C2D00006F5B076C4F82C1584F8AE351946954BA2
:10C2E000954AC4F83455A7F5BC67A035C4F8406535
:10C2F000924EC4F83C75C4F8443507F5D45703F59D
:10C300006953C4F848554FF050250020DFF854E237
:10C31000C4F86C25ACF5687C02F5A042C4F87075D1
:10C32000C4F8746507F5A04706F5A046C4F878354B
:10C33000C4F87C55A3F5485304F29C45C4F8802505
:10C34000C4F88865C4F8A835C4F830E5C4F838C521
:10C350000246C4F884752B4684F8B005402683F85D
:10C360001C21A3F822210132042AC3E9496083F881
:10C370001D1183F81F01C3F8300103F12803EED12A
:10C38000002211462B46402083F87423A3F87A2319
:10C390000132042AC3E9DF0183F8751383F87713A8
:10C3A000C3F8881303F12803EED14FF0A04364488B
:10C3B0009A6822F001029A60DA6842F04002DA607C
:10C3C00008F022FF94F8A5340022212161F31742DE
:10C3D0000BB142F4801294F89F14D4F8A8340129C8
:10C3E0009A6300F0E480DA68D4F8A865D4F8AC0465
:10C3F000C2F3076121F0600141F0400161F31F6267
:10C400000021DA603160026861F3CC22026094F8A6
:10C41000A724012A00F0B88010214A4809F046FA02
:10C42000484809F029FAD4F8AC0494F89D34002265
:10C430004FF0FF31026142618161C26153B305F186
:10C440001407414E114607EB83074FEA830C4FF068
:10C45000FF0E56F8042F1368002BACBF00234FF0DB
:10C460009043B74213601161C2F808E0F1D105F1C1
:10C470005003364963440027FF2651F8042F1568FE
:10C48000002DACBF00254FF0904599421560176113
:10C490009660F2D1036994F89F1443F480730129E4
:10C4A000036161D0D4F8A8242948002393610029AE
:10C4B0004FF0FF336FF0804151615360516114BF01
:10C4C00000231023906143F470139069D4F8841A08
:10C4D00043F4605343F0080303439361936809688E
:10C4E00043F00103936088471A4B1B4ADA606846A1
:10C4F0001A4B009309F0BEFC02B0BDE8F08100BF0A
:10C5000000E100E0003802400000024058510020E5
:10C51000D804002008040100400040010008005039
:10C52000000B00502009005040090050200B005023
:10C53000003C0140C0050050001000500030005089
:10C5400000560020F45500200856002044560020D4
:10C550000008008000ED00E00005FA05430200013C
:10C560000009005020050050D4F8A824144B0363A0
:10C570006FF08041134D00234FF0FF309361516104
:10C580005060516195619EE701680F4A0F4E41F07E
:10C5900003010160802159629E62C3F80421E022F8
:10C5A000C3F80821C0F24002C3F80C2134E79A68AE
:10C5B00022F03E0141F02A0161F307029A6012E77E
:10C5C0000301810000080080A000400080002000DE
:10C5D00010B51A4C94F8910AC0B9194B03F80F0C16
:10C5E00043F80C0C94F8943A012B05D0022B21D07F
:10C5F000D4F8983A1BB910BD124BC4F8983A1249B6
:10C600005B68BDE81040A1F10C00184748F0E2FE5D
:10C6100094F8932A0A49003A18BF012201F80F2C16
:10C6200041F80C0C0028DDD01F22C280202149F0E7
:10C630007FF9D7E7054BC4F8983AE0E75851002056
:10C64000682F002018050020F45B0020F40400206F
:10C6500099B10A6B824216D9154BD3F8DC2A914264
:10C6600021D34C3991421ED30B6B9842F9D38B6B7B
:10C670009842F6D80B46184670470D4BD3F8DC1A93
:10C680000A6B904212D30B680BB9F4E70A6B904225
:10C690000B4602D38A6B9042EDD951F84C3F002BE8
:10C6A000F4D1184670470023184670470A46D8E769
:10C6B000585100202DE9F047CC0143D10346224ACE
:10C6C00043F8082B4FF0FF324260022418467E26C2
:10C6D000DFF87880D8F8E09A2644013E051D4946E7
:10C6E0006FF070474FF0010A08E0A3421CD0631CB2
:10C6F00045F8043C321B1C460435CAB10B6BA342FF
:10C7000002D88B6BA34204D22046FFF7A1FF01465B
:10C7100090B10A794B6B002AE7D1A34204D0E6D24C
:10C7200045F8042C631CE5E745F8047C631CE1E74D
:10C73000C8F8E01ABDE8F08745F804AC321B631C6A
:10C740004946D8E78026C3E7F8FFFF0F585100207D
:10C7500070B4447941BB03684FF400524FF4007643
:10C76000202502213CBB1A8C22F001021204120C7B
:10C770001A841A8B188C22F0F30280B2120420F073
:10C780000A00120C014342F0010241F001011A8338
:10C7900019841A8B22F00C021204120C1A831A8BC1
:10C7A00092B270BC1A837047002203681646154681
:10C7B0001146002CD7D0042C21D0082C38D0198C4D
:10C7C00021F480510904090C19849C8B1D8C45F6B9
:10C7D000FF7040F6FF4128402140024342F480525E
:10C7E00041F4807199831A849A8B22F44062120476
:10C7F000120C9A839A8B92B270BC9A8370471A8CEF
:10C8000022F010021204120C1A84188B198C89B2AF
:10C8100040F6FF4221F0A00102400D4342F4807235
:10C8200045F010051A831D841A8B22F44062B3E789
:10C830001A8C22F480721204120C1A84998B1A8CAE
:10C8400021F0F30192B2090422F42062090C324370
:10C8500042F4807241F0010199831A849A8B22F08C
:10C860000C02C4E738B50E4D0446006809F04AFBD7
:10C87000D5F8C424204652084FF6FF7144F048FB17
:10C8800020460021FFF764FF064BC5F88C3D05F6F6
:10C890008C5120460022BDE8384044F07DBA00BFEC
:10C8A000682F0020012B0208036870B55E6A26B16C
:10C8B00033460522BDE87040184704460D464E1D1C
:10C8C00000E023689B68204698470028F9D0236839
:10C8D00015F8011B1B6820469847B542F1D170BD81
:10C8E000036870B55E6A26B133460822BDE8704021
:10C8F000184704460D4601F1080600E023689B68CE
:10C90000204698470028F9D0236815F8011B1B68BA
:10C9100020469847B542F1D170BD00BF0A4491420C
:10C9200017D010B40139541E11F8013F08225840A5
:10C93000430010F0800F08BF400083F0D50314BF00
:10C94000D8B2C0B2013AF3D1A142EDD15DF8044BA7
:10C95000704770472DE9F047164D0746002095F9BE
:10C96000ED9A05F6F42684B007EB010805F6945518
:10C9700004464FF0B60A3368ABB193F83830142B45
:10C9800011D019F1020F01D04B450CD1002269469C
:10C990003046CDE90244CDE90078ADF808A08DF825
:10C9A0000D4033F019F9E036B542E4D104B0BDE8EA
:10C9B000F08700BF58510020C36B83B930B583B0F6
:10C9C00004460093074A03460D4620204FF4FA61BF
:10C9D000FDF7B4FCE06300B1056003B030BD00209A
:10C9E000704700BF51440108836B7BB930B583B0F9
:10C9F00004460093064A0D46194603461020FDF7EB
:10CA00009DFCA06300B1056003B030BD00207047FD
:10CA1000ED4301082DE9F0479AB0DDE9226ADDF81F
:10CA2000909004460D461746984602E0206848F06C
:10CA30005FFA206848F064FA0028F7D101466422C2
:10CA400001A867F01BF8264B8DF80450CDF85CA0C8
:10CA50000293002D40D0AB1E012B3FD9042D14BFF3
:10CA6000002203221F4B039653F8703C8DF80520DB
:10CA70001E440123CDE9059404968DF85B3037B14F
:10CA80004246394607A866F087FF8DF85A80164E51
:10CA900096F8D69D00231893B9F1000F19D196F896
:10CAA000D50D642202FB006001A900F6D85066F0A3
:10CAB00073FF012386F8D59D86F8D63D236843B1E0
:10CAC00043463A46294620461AB0BDE8F04717F0DB
:10CAD000C7B81AB0BDE8F0870522C3E70222C1E754
:10CAE000EC5E0020682F0020585100200C480D4BB0
:10CAF000D0F8581E10B40C4CC0F8483E8A1E2231A3
:10CB0000B0F8763E1B01A4FB03C3DB08A3F5B063BA
:10CB100022F8023F9142F3D15DF8044B704700BF09
:10CB200058510020116D0208CDCCCCCC70B5084C0A
:10CB3000251D2E4614F8010B36F01CFD28B1037894
:10CB400005F8013BB442F5D170BDFF23F8E700BF03
:10CB5000F45F00202DE9F0471D4F012607F108057D
:10CB6000B2464FF03C094FF0000817F8010B48F0AF
:10CB700031FC044690B180F80690C671FB7803F052
:10CB80007F02012A18D013F0800F20460DD185F8BE
:10CB9000048048F007FF85F805802C600136052EDB
:10CBA00005F10805E1D1BDE8F08785F804A048F05B
:10CBB000FFFE85F805A0F0E71B0605D401212046FD
:10CBC00048F0B6FEFB78DEE748F0F2FEF6E700BF7D
:10CBD000FC5F00202DE9F04FDFF8FC91DFF8FCA1AD
:10CBE00083B009F10C06012419F8018BB8F1000F8C
:10CBF00000F0C6804FEA1815013D052D08F00F0220
:10CC000000F2C1800AEB4503B3F8840040FA02F752
:10CC100017F0010700F0D28001239340013B184038
:10CC2000554464F0FFF895F89030664F184407EBD0
:10CC3000C00704237761FC71BB71002302E0152B50
:10CC400000F09E8003EB43025F49895C41454FEA57
:10CC5000430B03F10103F2D15C4B1A4492F85911D2
:10CC6000002900F0AD80404644F09EFB0546284672
:10CC700044F0BAFB0378002B40F08280534B5B44B6
:10CC8000042283F8994183F89821002D78D0002F51
:10CC90005DD03B68287A03F13F4202F57E020AEB41
:10CCA00092224FF0010C92F8982002F01F015209D5
:10CCB000032A0CFA01F171D0042A67D0022A75D038
:10CCC000B7F804E0BEFA8EF2C2F11F02C2F3CC0143
:10CCD00003EB810102F007020F6A92004FF00F0C84
:10CCE0000CFA02FC27EA0C070F620F6A90403843E7
:10CCF000002208624FF0010B11460BFA01FC3CEADE
:10CD00000E0001F101011ED118680327974020EAA7
:10CD100007001860D3F800800220904040EA080025
:10CD20001860986820EA07009860986898605868CA
:10CD300020EA0C00586058685860D86820EA07005C
:10CD4000D860D868D860102902F10202D5D1204BF2
:10CD5000204AB3F8CC1EB3F8CE3E00910020013437
:10CD60000190B2FBF3F330469BB22946E4B232F0B5
:10CD7000FDF80123092C737406F118067FF434AF13
:10CD800003B0BDE8F08F0027776156E7DFF850C0A9
:10CD9000DCF830200A43CCF8302091E7DFF840C0BF
:10CDA000DCF840201143CCF8401089E7DFF830C0B0
:10CDB000DCF844201143CCF8441081E777613CE76C
:10CDC0000D4654E72C310020C0300020682F002091
:10CDD0005851002040420F0028600020EC3C07081A
:10CDE0000038024070B5044684B04FF4004038F07B
:10CDF000D9FB80B300234FF4E131032590F90400FF
:10CE00000293CDE900151A464FF4004138F027FC93
:10CE1000124BC3F89C0FF0B1012C40F6980208BFEA
:10CE20004FF496620E480F4DA3F8A82F4FF461718E
:10CE30000D4AC3F8B40F0A2683F8A04FC3F8A46FB5
:10CE4000A3F8AA1FA3F8AC1FC3F8B05FC3F8B82FAC
:10CE5000012004B070BD0020FBE700BF5851002046
:10CE6000A12B020869EF01085DEF010841EA020306
:10CE7000034300D1704710B507EE900A07EE101A71
:10CE80002DED068BB8EEE79ADFED357A354CF8EEEE
:10CE9000C78A07EE102A29EE279AB8EEC78A41F210
:10CEA00024030122B0EE490AE25468EEA78A28EE74
:10CEB000278A65F03BFAF0EE407AB0EE490AB0EE10
:10CEC000679A65F057FBF0EE409AB0EE680A65F09D
:10CED0002DFAB0EE40AAB0EE680A65F04BFBF0EE1A
:10CEE000408AB0EE480A65F021FAF0EE407AB0EEE2
:10CEF000480AB0EE678A65F03DFB69EE005A69EEBC
:10CF0000886A29EE086A29EE807A2AEE088A6AEE93
:10CF1000699A29EE0A9AB0EE655A04F6D873A8EE1B
:10CF2000A65AE8EEA56AF0EE465AE8EEC75A60EE59
:10CF30004A7AA8EEC67AC3ED168A83ED148AC3ED49
:10CF4000199A83ED1C9ABDEC068BC3ED157A83ED1F
:10CF5000175AC3ED1B6AC3ED185A83ED1A7A10BD38
:10CF600036FA8E3C585100202DE9F041204E214FD9
:10CF700016F8A93C87F8F83EAC3E07F6FC6500249D
:10CF80004FF0050816F8010B20BB28600134032C74
:10CF900005F10405F6D197F8F81ED7F8FC0EC94341
:10CFA00001F0010148F00AFD97F8F81ED7F8000FCC
:10CFB00081F00201C1F3400148F000FD97F8F81E2E
:10CFC000D7F8040F81F00401BDE8F041C1F38001FE
:10CFD00048F0F4BC48F0FEF9013401212860E3B2C6
:10CFE00010B180F80680C371286848F0A1FCCEE734
:10CFF00050620020682F00202DE9F0413E4C3F4D4B
:10D0000034F8A46CA5F8086F82B0002E45D114F84E
:10D01000A80C48F0DFF914F8A72CC5F80C0F003A5B
:10D0200018BF012285F80A2F48B114F8A61C2B223C
:10D03000002914BF11210121C28048F079FC002091
:10D0400045F082F92E4C2422002104F53F7066F051
:10D0500015FD0122009204F53F732A4A42F2107135
:10D060002020FDF76BF9C4F80C0398B1264A274934
:10D07000B2F87432016026482649274DA4F80833D7
:10D080005E1CC4E9BF01A2F87462244AC4F81C53B0
:10D09000C4F8042302B0BDE8F08114F8A88C002283
:10D0A00040462B2144F0D6F90746404648F092F915
:10D0B0000028C7D0002FC5D02B22C5F8240FC2806E
:10D0C000397AFCF723FA4FF00008154AB2FBF6F361
:10D0D000C3F34F0000909BB2CDF80480394605F5AC
:10D0E000716024F8A26C31F041FFD5F8103FC3F80D
:10D0F000008085F8218FA5E750620020682F00206E
:10D1000058510020851401088801002050D70708D5
:10D110007D580408F139040889230508CD36040830
:10D1200040420F002DE9F84F244C14F8943C04F8C9
:10D13000A03CA4F19D070026803C5FFA86FB0BF122
:10D1400001085FFA88F8012117F8010F42460E44E2
:10D150008A4644F07FF94FF00009054640B338781D
:10D1600004F80E9C04F80D9C04F80FBC04F810ACF5
:10D1700044F8045C48F02EF918B180F806A080F855
:10D180000780297AFCF7C2F90D4A0021284643F0AE
:10D19000BFFE0C4B23600C4B221D21462846C4E9E0
:10D1A000013943F0F9FD697928684A4631F05AFEA1
:10D1B000082E04F11C04C0D1BDE8F88F5062002095
:10D1C00040420F009DEE03084DA3030870B5304C9C
:10D1D0005022A018002166F051FC0C21022066F0BC
:10D1E00015FCC4F8A000002851D02A49D4F8400109
:10D1F000B1F87432A4F850300133A1F87432FF2131
:10D200000C2384F8701040F68C21002684F89B30A3
:10D21000A4F89E1040F2DD5340F6CA01A4F8723023
:10D22000A4F874101C4BE066324694F8100384F89E
:10D2300053600221A36644F00DF9054638B394F813
:10D24000100304F8906C44F8845C48F0C3F808B10B
:10D250000223C380297AFCF759F928460F4A002196
:10D2600043F056FE0E4A0F4944F8801C0026111F59
:10D2700028460D4B44F87C3C44F8786C43F08CFD18
:10D28000697928683246BDE8704031F0EBBD70BD69
:10D29000506200208801002075A4030840420F005E
:10D2A000D461002075A3030871A403082DE9F04F91
:10D2B000C04F87B00B460446C022BF4803930021ED
:10D2C00066F0DCFB97F811338BB9BC4DD5F83432DE
:10D2D000002B7ED00022039883F82C00012183F8D4
:10D2E0002D101A6383F82E2007B0BDE8F08F97F851
:10D2F0001233002B7CD0DFF8D88298F84431012B10
:10D3000000F0A180022B00F08180AD4EAB4D98F86B
:10D310003AC198F836710FCE05F5007404940FC425
:10D320000FCE0FC496E80700BCF1000618BF012617
:10D33000A44B85F83862072F84E80700C5F8183237
:10D3400000F21881042F00F25581DFF86CA2DFF89B
:10D350008CB20026039BB3424FF0030137DD1BF86C
:10D36000019B08EB090309F1010793F83B41FFB268
:10D3700020463A4644F06EF8034620461C46002BF1
:10D3800000F0108148F026F8CAF8140018B14FF0E8
:10D3900003038371C77198F8372198F83631F1B2D9
:10D3A000002A00F0FD80E27982F00102009220461E
:10D3B0004A46013660F086FE002800F0F3804FF008
:10D3C0000103082E8AF811300AF1180AC2D1049B11
:10D3D0009EE07D4E7D4C0FCE0FC40FCE0FC496E85D
:10D3E0000700A4F1200384E80700C5F834327BE786
:10D3F000774B039993F83821704D003A204618BFB7
:10D400000122FBF729F9C5F834025FE798F83A31B1
:10D41000002B3FF47AAF98F83631082B13D1684EC1
:10D42000664D684F0FCE05F5007404940FC40FCEFF
:10D430000FC496E80700012384E8070085F8383216
:10D44000C5F8187299E05D4D624E039BC5F83C32F9
:10D450000FCE05F5E6740FC40FCE0FC496E8070093
:10D4600098F83AC10023BCEB030C84E8070018BF0E
:10D470004FF0010C1946584898F8363187F84C336C
:10D480004FF44C7285F838C287F814138B4666F057
:10D49000F5FA494B0593514B049305F51276D5F8EF
:10D4A0003C325B455EDD049A12F8013B0492434432
:10D4B00093F83B41204644F053F88146204647F01C
:10D4C00089FF98F837310446002B4DD099F8073082
:10D4D00083F0010A0AF0010995F8380209F10109FF
:10D4E00087F8139308B18AF0010A002C49D0A1797A
:10D4F00089B141290FD03A4B3A493B4AC5F8E83146
:10D50000012387F81433C5F8E411C5F8F02100238E
:10D51000C5F83432DAE6204648F08EFA4FEA49116F
:10D520000BF1010B41F009014FF0030371617060D1
:10D53000F46086F810A084F807B0A371204648F084
:10D54000F7F91AF0010F204611D048F02BFA059A8E
:10D55000F3685361BBF1080F02F1180306F12006CE
:10D5600005939CD1214BD3E799F807A0B2E748F087
:10D570001FFAECE7082F7FF4E8AE1D4BC5F84032E8
:10D58000E3E6204648F058FA4FEA491949F0090104
:10D590000BF1010B71617060F46086F810A0CDE7AB
:10D5A000E27903E7104B0E4AC5F82432C5F81C2275
:10D5B0000023ADE7506200203C0000100011001075
:10D5C000E03D0708998F0608B43D0708686500200C
:10D5D000682F00200C3E0708A0650020AE30002018
:10D5E000092705080D27050801270508CC1200109A
:10D5F000B127050898F83931064AC5F84022012BB1
:10D6000005D0022B06BFBCFA8CF35B09002385F81A
:10D6100044329AE6E12705082DE9F0416E4F97F86C
:10D62000700E97F8715E47F0D5FE60B12D23C38070
:10D630002021044648F07CF90A2044F0A7FB20464C
:10D6400048F0F0F928B9DFF89881D8F88036DA0088
:10D6500001D5BDE8F081013D092DFAD897F86F4E4C
:10D66000D4B9402037F09EFF0028F2D090F9043062
:10D6700097F8411E092BC8BF143B43440A2993F86D
:10D68000844600F09B8093F8903697F86E2E002A1F
:10D6900008BF1C46002CDCD0204647F09BFE054608
:10D6A000002800F083802D23C380012148F040F939
:10D6B0000121084648F09CF92B68AA881A833C206F
:10D6C00044F030FC0021012048F092F997F8713EB7
:10D6D000002B4CD0414C00261FE02B68AA885A83AF
:10D6E00044F054FB94F8F81ED4F8FC0E01F001014C
:10D6F00048F064F994F8F81ED4F8040FC1F38001DF
:10D7000048F05CF92B68AA881A83782044F03EFB25
:10D7100097F8713E01369E4229DA94F8F81ED4F843
:10D72000FC0EC94301F0010148F048F994F8F81ED5
:10D73000D4F8040F81F00401C1F3800148F03EF9F0
:10D740007820002DC9D1782044F020FB94F8F81EF1
:10D75000D4F8FC0E01F0010148F030F994F8F81EFD
:10D76000D4F8040FC1F3800148F028F9CDE797F809
:10D770006F3E9BB9D7F8703E03F0FF13B3F5803FBF
:10D780007FF467AFD8F8803613F080537FF461AF31
:10D7900087F8713EBDE8F04151F06CBE322044F094
:10D7A000C1FB2846002148F0C3F8E3E7012148F017
:10D7B000BFF80121084648F01BF980E7D8F8A836E1
:10D7C0005B057FF546AF0EF0FBFA00287FF441AF12
:10D7D000002C7FF461AF3CE758510020682F0020F7
:10D7E0005062002030B51C4C1C4D83B02822002113
:10D7F00004F2AC6066F042F9B5F87432A4F8AC36C5
:10D8000004F2B460013303222021A5F87432FCF73E
:10D8100011FA68B90546D4F8D00618B107F034F902
:10D82000C4F8D0560E4807F05FF9002003B030BDB1
:10D8300000214FF47A70C4F8B0060A4A009104F24D
:10D84000AC630820FCF77AFDC4F8D0060028E9D0C4
:10D85000054B03600120E9E75062002088010020A9
:10D86000046900209D17010858D7070870B4344890
:10D8700090F8D436A3F13001092957D800F2D464C6
:10D88000224600F2E36012F8015FA5F13001092998
:10D8900004D88242F7D1002070BC7047141B022CC0
:10D8A0004ADD2848002101E010F8013B01EB81012D
:10D8B00003EB4103161A303B022E044603F0FF012E
:10D8C000F2DC214B03FB01F1A2424FF000030DD922
:10D8D00003EB830314F8016B5B00303B3344A2423B
:10D8E00003F0FF03F4D1194800FB03F32E2D06D0FB
:10D8F0001748A0FB032301EB930070BC7047013273
:10D9000004200024157804EB8404303D6400092DC4
:10D9100000F1FF30A4B202D82C44A4B2013210F0BE
:10D92000FF00EFD1642202FB0433E1E700211D4632
:10D9300000F2D4620B46D9E7064C0021C4E700BFD1
