:020000040800F2
:10000000F0FF001025180708D9FC0008391805086A
:10001000C5180708C5180708C5180708000000001C
:10002000000000000000000000000000D5FC0008F7
:10003000D1FC000800000000CDFC0008BD0405084C
:10004000C5180708C5180708C5180708C518070800
:10005000C5180708C5180708214B0508E94A05080F
:10006000B14A0508794A0508414A05085DF90608BC
:100070004DF906083DF906082DF9060819F9060894
:1000800005F90608F1F80608C5180708C518070895
:10009000C5180708C5180708C5180708094A05083C
:1000A00069ED0408F1ED040859ED040819EE04089F
:1000B000E1ED0408D1ED0408C1ED04089507070837
:1000C0009D070708850707088D070708C518070853
:1000D000C5180708410D0508F10B0508A10A050818
:1000E000D1490508C51807089115010849ED04080C
:1000F00079ED040839ED0408A1ED0408DDF80608DF
:10010000C5180708CDB60608B1ED0408C5180708DC
:100110005109050801080508313404081D34040894
:10012000C9F80608B5F80608A1F806088DF806080B
:1001300079F80608C5180708C5180708C51807087C
:10014000C5180708C5180708C518070861F600088C
:1001500065F8060851F806083DF80608B1060508D6
:10016000750707087D070708C5180708C518070899
:10017000C5180708C5180708C5180708C5180708CF
:08018000C5180708C51807089F
:0828000000C00F0800001008E1
:10800000F0B401292A4C2B4D23684FF0000694BF91
:1080100000270127EE626662A6626763676B47EA24
:1080200042076763EE63EC6B002A38D144F4957421
:10803000EC631C6824F001041C601C68E407FCD499
:10804000490289085960D8601968EAB921F04001ED
:10805000196019498B421DD018494FF47410C8603B
:10806000196841F01E011960596941F08001596198
:10807000196841F00101196022B90E4AD36A43F030
:108080000803D362F0BC704741F0400119600A490F
:108090008B42E1D14FF0746041F8500CE0E744F0BE
:1080A0001A04EC63EC6A44F00804EC62C1E700BF18
:1080B000581E0020002C0140586402400064024019
:1080C0001148002302461178032902F1060216D056
:1080D0000133062BF7D10D4AD36D052B0ED0591C59
:1080E00003EB4303D16500EB4303032040F2EB3184
:1080F00040F2FF32187059809A807047704703EB46
:10810000430300EB4303F0E7901E0020581E0020BD
:1081100070B4C3080D4CE25C00F00706B24004EBFB
:10812000D004D2B20020C6F108038B4228BF0B4610
:10813000C3F108052A419840C91A40EA02004FF0ED
:10814000000614F8012FEED170BC7047F81E002015
:10815000084AD2E9573199420AD0D118013391F82F
:1081600064110170C3F30A03C2F85C310120704747
:1081700000207047581E0020044BD3E95730C01A26
:10818000C0F30A00C0F50060704700BF581E002011
:10819000012380F8AD30704707B501A8FFF7D8FF7D
:1081A0000028FAD09DF8040003B05DF804FB034BEF
:1081B000D3E95730C01AC0F30A007047581E002098
:1081C00001207047024BC3F86429C3F8681970474F
:1081D000581E0020024BC3F86C29C3F87019704771
:1081E000581E00207047704730B4114DD5E9572311
:1081F0009A1AC2F30A020A44B2F5006F13D8A9B161
:1082000001444A1E013810F8014FE918824203F177
:10821000010381F86441C3F30A03F4D1C5F8603166
:10822000002030BC7047022030BC70470846F8E799
:10823000581E002070B5144C94F87439002BFBD1F3
:10824000F9B101444E1E451E02E0012048F092F8AB
:10825000D4F87839D4F87C290133C3F30A03934264
:10826000F3D0D4F87829D4F8783915F8011F2244CE
:108270000133C3F30A03B54282F88019C4F8783990
:10828000E6D1002070BD00BF581E002010B5094C7B
:10829000D4F88830084611465BB1D4F88830052BF5
:1082A00007D1002AD4F88C3003DDFFF7C3FFD4F8E0
:1082B0008C3010BD502F002010B590F8AC1000236A
:1082C00080F8AC3081B10B4CD4F8882072B1D4F86E
:1082D0008820052A0CD19830D4F88C30FFF7AAFFFB
:1082E000D4F88C30012010BD0120FCE71046FAE7DD
:1082F0001846F8E7502F0020002280F8AD20DBE779
:1083000090F8AC20531C0244DBB280F8AC3082F809
:10831000981090F8AD200AB1132B00D9CCE7704724
:10832000212838B50C4605D022282FD0202813D07C
:10833000002038BD0029FBD0072AF9D11A4BD3F809
:10834000900093F8941093F8952093F8963020605D
:1083500021716271A371EBE70029E9D0072AE7D107
:10836000124AD2F868391BB1D2F8640909689847F3
:108370000D4B256820796179A279C3F8905083F874
:10838000940083F8951083F89620D1E70029CFD088
:10839000022ACDD1054AD2F87039002BC8D00988FD
:1083A000D2F86C099847C3E7502F0020581E0020D0
:1083B000024B0020C3F88800704700BF502F0020F8
:1083C000054B064A00200521C2F88810C3F8700941
:1083D000C3F86809704700BF581E0020502F0020C6
:1083E000704700BF704700BF704700BF704700BFB5
:1083F000704700BF704700BF704700BF04230148AB
:108400000B8070478801002010B4074A074B92F890
:108410009800122403F114020C8001280CBF1846A6
:1084200010465DF8044B7047502F00208C0100204F
:1084300000487047E01E002000487047E01E002002
:10844000034B93F88400032894BF00200120704759
:10845000581E0020034B93F88400032894BF00208B
:1084600001207047581E0020034B93F88400003809
:1084700018BF0120704700BF581E0020A0B18268BD
:108480000D4B12B107229A7070471978DA600329F0
:108490004FF004000CBF80214FF48071C3E901113B
:1084A0001A611A7598707047034B41F2E47101220A
:1084B0005A545A70704700BF509D00200378022B19
:1084C00010D0006908B9012070470C4B1B78032BB2
:1084D0000EBF0B4B80B24FF6F773984294BF00204B
:1084E000012070470549436841F650028A58B3EBB2
:1084F000422F2CBF01200020704700BF509D00205C
:10850000F7FFFF0F0378022B14D030B4104A4368F2
:10851000006941F6480402F5C2511559096841F64F
:108520003C042B4012595B0A023801FB0030104416
:1085300030BC7047064B426841F6340141F63000CA
:108540005958185800EB410000EB5220704700BF0B
:10855000509D00202DE9F84F494B98420ED003F56D
:108560006853083398424ED0464B0020C3E942007E
:10857000A3F80401A3F81001BDE8F88F414C424F65
:10858000DFF810810223C4F89C3004F1A006002516
:10859000FB6AAB42294605F1010503D0D4F820015E
:1085A0005BF072FA94F82431D4F8202186F8243054
:1085B0003262304641465BF07BFCD4F89C309D42F1
:1085C00006F13006E4DB002384F81231D4E92A03F3
:1085D000D4F89C10B4F8A420B4F8B050C4F83031EA
:1085E00012FB01F203FB01F3A4F80421B4F8A61076
:1085F000264AA4F81051C4E94203A4F80611C4F8AD
:1086000000210120B8E71F4C1F4F0223C4F89C3003
:1086100004F1A0054FF0000B4FF4806A4FF04009C1
:108620004FF40068FA6A01265A455946B34403D00C
:10863000D4F820015BF028FAD4F8201194F8242112
:10864000296285F824204FF400314FF00062C5E91B
:108650000212A5F804A0A5F81090A5F80680AE7443
:10866000FFF72EFD28466E765BF06EFBD4F89C205B
:10867000074B45F8303B9345D4DB84F81261A5E7FE
:108680001971EF00502F0020880100207C4307085B
:10869000504307081940EF002DE9F04FD84DDFF89F
:1086A0009083DFF89CA307460E4693460FCD4446C1
:1086B0002DED068B0FC40FCD0FC495E8070089B0D0
:1086C0009AF83631CDF808B084E80700CDE9047691
:1086D000042B00F26781DFE813F0D201650160012D
:1086E0000500E2019FEDC78ADFEDC78AC749C8F8D8
:1086F0001C10C749C74BC84AC8F81810029900296E
:1087000018BF134638EE887AF5EE006A86EE87AA1F
:10871000C24EDFF830B3C8F824300025DFEDC07A50
:108720009FEDC09A28EE278AF0EE679A059BAB4230
:1087300000F02D811BF8013B0AEB030292F83B414C
:10874000002C00F03481DFF800C3002202E0152A7B
:1087500000F02D8102EB420157001CF80100A042FD
:1087600002F10102F3D1514491F85911002900F0AE
:1087700084812046039346F05FFE039B8146484672
:10878000039346F079FE0178002940F01081039BA5
:1087900057440133DBB2032287F8993187F89821D7
:1087A000B9F1000F00F003812709013F052F04F004
:1087B0000F0000F24D819C4C04EB4701B1F884C0DE
:1087C0004CFA00F111F0010100F04281012101FA9F
:1087D00000F0013800EA0C002744039368F074FEAF
:1087E00097F89070DFF864C2039B38440CEBC00725
:1087F0000322FB71BA715CF83000776100F13F43EE
:1088000003F57E0304EB9324012194F8983099F842
:10881000082003F01F045B09032B01FA04F100F0A8
:108820001D81042B00F02481022B00F01C81BB88E9
:108830000693B3FA83F3C3F11F03C3F3CC0100EB38
:10884000810103F007030C6A9B000F279F4024EA75
:1088500007040C620C6A02FA03F323430B6202233F
:1088600006A907930EF034FB029B002B00F0AE80AC
:10887000BAF8343100EE103AB8EEC00AFCEEC07A15
:1088800017EE901AD9F80030684A934200F09B80A6
:10889000A2F58062934200F0968002F580429342F6
:1088A00000F0918002F58062934200F08C8002F526
:1088B0008062934200F08780DAF8C42450084FF6B3
:1088C000FF73B0FBF1F21A44120CB0FBF2F2029803
:1088D000002800F08480B2FBF1F19AF836010428F8
:1088E0008BB200F0828007EE902AF8EE676A66EE9F
:1088F000887A29EE677A9AF8370104990091A8EEF0
:10890000A67A019049463046C6ED027A86ED037A92
:108910003AF076FA002D40F39D807368D8F838203D
:10892000934200F09980012D00F09480D8F85020F7
:10893000934200F09180022D00F08C80D8F86820DE
:10894000934200F08980032D00F08480D8F88020C5
:10895000934200F08180042D7CD0D8F89820934277
:108960007AD0052D76D0D8F8B020934274D0062D59
:1089700070D0D8F8C820D31A18BF012301350122BE
:10898000082D3374727406F118067FF4CFAE2848B0
:1089900009B0BDEC068BBDE8F08F9FED268AF0EEA6
:1089A000488AA3E69FED248AF0EE488A9EE6234A91
:1089B000194BC8F81C200020C8F8243009B0BDECC1
:1089C000068BBDE8F08FDAF8C40478E7B0EE4A0A07
:1089D00069F098FFFCEEC07A17EE901A52E79AF809
:1089E0003601042819467FF47EAF07EE901A07EE91
:1089F000102AF8EE677AF8EE476A67EEA97A78E708
:108A0000A8430708ACC5A737ACC5A73605F10308CE
:108A100079D3040865EA03086DD304083C0000100C
:108A20006F12833A00007A44504307080004014063
:108A300008000010282930386F1203395DED030853
:108A4000502F002096300020A83000201431002044
:108A5000716109E7012391E700238FE7114B1C6C3B
:108A600021431964E3E60F4B5C6C21435964DEE655
:108A70000C4B1C6B21431963D9E689467FE69FEDB9
:108A80000A8A0A4BC8F818300023094A04930123C4
:108A90000293C8F81C20074BF0EE488A32E69FED9F
:108AA000068AEEE7003802406F12833A79D3040851
:108AB00005F103086DD3040800000000F8B5104E5E
:108AC000D6F8C444054600680F4664080EF004F961
:108AD000B4FBF7F1B1F5803F03D3012CFAD9640858
:108AE000F6E72246284689B246F05AFA054BC6F800
:108AF000883D28460449BDE8F840002246F094B974
:108B0000502F002099630208D83C002010B5044C77
:108B100004480A4621460CF02BFF204610BD00BF3A
:108B2000E03C0020BCDD070810B5044C04480A46B0
:108B300021460CF01DFF204610BD00BFE03C002088
:108B4000CCDD070810B5044C04480A4621460CF059
:108B50000FFF204610BD00BFE03C0020D8DD070815
:108B600010B5044C04480A4621460CF001FF20468B
:108B700010BD00BFE03C0020E4DD070810B5044C48
:108B800004480A4621460CF0F3FE204610BD00BF03
:108B9000E03C0020F0DD070810B50D4C94F85A2198
:108BA0000023C4F8803012B10A4AC2F8903E64F043
:108BB000FFFD20B10423022084F8843010BD054B52
:108BC000D3F88C306367092384F8843010BD00BF6C
:108BD000581E0020502F002070B50D4D95F88430A0
:108BE000042B04460E460AD0082B06D1EB6F8342B5
:108BF0000CD0FFF7D1FF022801D0012070BD08235F
:108C0000C5E91F4685F88430022070BD022070BD82
:108C1000581E002070B50379234C002B14BF01238C
:108C2000002384F8B03003D1002384F8843070BD71
:108C30001E4D002195F9972E032048F03BF900289E
:108C4000F2D04668304648F023F984F859010028EC
:108C5000EAD095F8953E003B18BF0123304684F8D2
:108C60005A3165F0B7FC0BF0C1FA38B994F8783096
:108C700084F88400013384F8783070BD64F082FE9B
:108C800040B194F878300022013384F8783084F8C9
:108C9000842070BDD5F88C306367012384F8780098
:108CA00084F8843070BD00BF581E0020502F002073
:108CB00010B564F067FE58B10C4C94F8783001336D
:108CC000DBB2072B84F8783003D9002384F8843092
:108CD00010BD0BF08BFA0028F7D0054A0123D2F81B
:108CE0008C20626784F8843010BD00BF581E0020BD
:108CF000502F00202DE9F041884C94F8B050002D01
:108D000000F0FA8094F88420854E0227531E082B29
:108D100041D8DFE803F03739A0406A51154005001B
:108D200064F046FD002840F0EE80636FD6F88C209A
:108D3000FA3393422CD2FFF7BBFF94F88420E5E787
:108D400064F036FD0028F0D0D4F880300022012BEA
:108D500084F8782040F2DB80E16F94F85A01013BFF
:108D60000131C4E91F1310B16D4BC3F8902E0822D6
:108D700084F88420A2F10805B5FA85F56D09284626
:108D8000BDE8F08184F8847064F012FD002843D1BE
:108D900094F88420531EDBB2022B0AD8604B616F1B
:108DA000D3F88C305B1AC82BE4D9FFF781FF94F815
:108DB0008420042ADED1E2E7236B002BDAD1584B62
:108DC000E66ED3F88C306367072284F88420002E87
:108DD000D0D0D4E91821236F0120B047D8E7636FC2
:108DE000D6F88C1064338B42C4D2D4F82C80B8F1FE
:108DF000000FF4D164F0DCFC00289ED0E66E84F80D
:108E00007880042384F88430002E7AD0D4E91821A5
:108E1000236F4046B047BBE764F0E0FA0028B7D1C3
:108E200096F8993E002BA3F10203B3FA83F314BF23
:108E3000022201225B0984F8792084F87A3064F0F8
:108E4000CDFA00287FF477AF364A0323926CC4F83A
:108E5000882084F8843064F0C1FA002898D1304B1F
:108E6000C4F8800093F8CC6EB3F8CE0ED3F8D0EEF1
:108E7000D3F8D0CED3F8D07ED3F8D02E84F88E603D
:108E800093F8D41EA4F88C0093F8D56E84F8922041
:108E900093F8D50ED3F8D82EC4F89420B3F8DE8E0C
:108EA000B3F8DE2E84F89310B3F8DE1EC2F30B1372
:108EB00043EA182303F00F0301F00F024FEA1E6E7E
:108EC0004FEA1C4C3F0A360900F00F0003F5FA6325
:108ED000042184F8990084F88FE084F890C084F825
:108EE000917084F89860A4F89A3084F89C2084F8F3
:108EF00084102846BDE8F08184F884502846BDE8F7
:108F0000F08105463BE7042384F8843037E7FAD143
:108F1000FFF742FE94F88420531E3CE7581E0020C1
:108F2000502F0020F03D00202DE9F8431A4C94F812
:108F30008460042E0546894690461F4608D0082EB8
:108F400002D00020BDE8F8830BF076F80228F8D1B3
:108F5000D4F8C00048F042FC94F87A309BB969021A
:108F600011200BF0D7F8A0B90C4BC4F86090D3F8DF
:108F70008C2065660523C4E91B87626784F884300A
:108F80000120BDE8F883294611200BF0C3F8002822
:108F9000EAD00BF007F9D4E7581E0020502F00202C
:108FA00070B51E4C94F88430042B06460D4608D04C
:108FB000082B22D1E36F83422DD00BF03DF802281D
:108FC0001BD1D4F8C00048F009FC002137200BF079
:108FD000A1F8294617200BF09DF8B0B994F87A3023
:108FE0006BB9710219200BF095F870B90823C4E928
:108FF0001F6584F88430022070BD012070BD3146A9
:1090000019200BF087F80028F0D00BF0CBF80BF00C
:10901000FFF8032070BD022070BD00BF581E002065
:109020002DE9F0412D4C0546884617461E4694F81A
:109030008400042836D0082806D1E36FAB4206D05E
:109040000AF0FAFF0228F2D00120BDE8F0814FF0CB
:10905000FC0CD4F8B8202248117B224B80F8F8CEC3
:10906000C3F8588051B1526942B194F84421002AA2
:109070000CBF4FF480724FF4007201E04FF4807225
:109080001A66194919484BF043FF01220623C4E927
:109090001885C4E91B7684F8682084F884300020A1
:1090A000BDE8F081D4F8C00048F098FB94F87A301D
:1090B0005BB9690218200BF02DF840B994F88430A0
:1090C000082BC4D04FF0FE0CC3E72946F2E70BF0A3
:1090D00069F80BF09DF80320B7E700BF581E002089
:1090E000502F002088010020B8010020101F002010
:1090F0002DE9F84FBA4C94F8F91E0546C1F340012A
:10910000D4F8000F48F076FB94F8F91ED4F8FC0E62
:10911000C94301F0010148F06DFB002D00F0CD8046
:109120006E1EB04FB04D5FFA86FB4FF01008D4F8BA
:10913000000F48F043FBD4F8FC0E48F03FFBB4F8B6
:10914000083F002B40F0438194F80A1FD4F80C0F1D
:1091500048F050FB4FF0FA094FF47A704FF0010CD1
:109160007B68C3F30803002B40F00881EFF3118301
:10917000002B40F00381D4F88C20A968D4F88C30FF
:109180009A42F8D1D4F8303F9942F4D8D4F82C6FF1
:1091900000FB06F35B1AB3FBF6F300FB02327B68BD
:1091A000C3F30803002B40F0A880EFF31183002BDA
:1091B00040F0A380D4F88C30D5F808A0D4F88C10F7
:1091C0008B42F7D1D4F8301F8A45F3D8D4F82C6FEE
:1091D00000FB06F1A1EB0A01B1FBF6F100FB031362
:1091E0009B1AB3F57A7FDAD3B9F10109B8D1D4F873
:1091F000000F48F0E3FAD4F8FC0E48F0DFFAB4F8B8
:10920000083F002B40F0D78094F80A1FD4F80C0FC9
:1092100081F0010148F0EEFA4FF0FA0C4FF47A7049
:109220004FF0010E7B68C3F30803002B40F08680EB
:10923000EFF31183002B40F08180D4F88C20A968D3
:10924000D4F88C309A42F8D1D4F8303F9942F4D80F
:10925000D4F82C9F00FB09F35B1AB3FBF9F300FB76
:1092600002327B68C3F308034BBBEFF3118333BBBC
:10927000D4F88C30D5F808A0D4F88C108B42F7D1F4
:10928000D4F8301F8A45F3D8D4F82C9F00FB09F19D
:10929000A1EB0A01B1FBF9F100FB03139B1AB3F533
:1092A0007A7FDED3BCF1010CBCD10BF1FF365FFA43
:1092B00086FBBBF1FF0F7FF43AAFBDE8F88FEFF309
:1092C000118988F31288AE682B68DB0344BFC4F8A9
:1092D00028EFAE68D4F88C30D4F8281F5FFA89F9EB
:1092E00089F31188D4F82C9F0B4400FB09F1891BEA
:1092F000B1FBF9F100FB0313D0E7EFF3118E88F314
:109300001288D5F808A02B68D90344BFC4F828CF29
:10931000D5F808A0D4F88C30D4F8281F5FFA8EFE58
:109320008EF31188D4F82C6F0B4400FB06F1A1EBEF
:109330000A01B1FBF6F100FB031351E7EFF31181D2
:1093400088F31288D5F808902B68DA0344BFC4F874
:1093500028EFD5F80890D4F88C30D4F8282FC9B26B
:1093600081F31188D4F82C1F1A4400FB01F3A3EBFE
:109370000903B3FBF1F300FB023272E7EFF3118153
:1093800088F31288AE682B68DB0344BFC4F828CF8B
:10939000AE68D4F88C30D4F8282FC9B281F3118884
:1093A000D4F82C1F1A4400FB01F39B1BB3FBF1F311
:1093B00000FB0232F3E6D4F8243F002B3FF42CAF3D
:1093C000D4F8103FC3F8009084F8219F24E7D4F824
:1093D000243F002B3FF4BEAE47F058F9BAE600BF79
:1093E000502F002000ED00E010E000E02DE9F84FE4
:1093F000B74CB84F94F8F91ED4F8000FB64DC1F32E
:10940000400148F0F7F994F8F91ED4F8FC0EC9436E
:1094100001F0010148F0EEF94FF0050B4FF0100894
:10942000D4F8000F48F0CAF9D4F8FC0E48F0C6F999
:10943000B4F8083F002B40F0438194F80A1FD4F899
:109440000C0F48F0D7F932264FF47A704FF0010C28
:109450007B68C3F30803002B40F00781EFF311830F
:10946000002B40F00281D4F88C20A968D4F88C300D
:109470009A42F8D1D4F8303F9942F4D8D4F82CEF7E
:1094800000FB0EF35B1AB3FBFEF300FB02327B68BA
:10949000C3F30803002B40F0A780EFF31183002BE8
:1094A00040F0A280D4F88C30D5F808A0D4F88C1005
:1094B0008B42F7D1D4F8301F8A45F3D8D4F82CEF7B
:1094C00000FB0EF1A1EB0A01B1FBFEF100FB03135F
:1094D0009B1AB3F57A7FDAD3013EB9D1D4F8000FE5
:1094E00048F06CF9D4F8FC0E48F068F9B4F8083F7D
:1094F000002B40F0DA8094F80A1FD4F80C0F81F0AA
:10950000010148F077F94FF0320C4FF47A700126E0
:109510007B68C3F30803002B40F08780EFF31183CF
:10952000002B40F08280D4F88C20A968D4F88C30CD
:109530009A42F8D1D4F8303F9942F4D8D4F82C9F0D
:1095400000FB09F35B1AB3FBF9F300FB02327B6803
:10955000C3F308033BBBEFF3118323BBD4F88C3078
:10956000D5F808A0D4F88C108B42F7D1D4F8301F6E
:109570008A45F3D8D4F82C9F00FB09F1A1EB0A012E
:10958000B1FBF9F100FB03139B1AB3F57A7FDED32D
:10959000BCF1010CBCD10BF1FF3616F0FF0B7FF4D0
:1095A0003FAFBDE8F88FEFF3118988F31288D5F843
:1095B00008A02B68DB0344BFC4F8286FD5F808A0C7
:1095C000D4F88C30D4F8281F5FFA89F989F3118810
:1095D000D4F82C9F0B4400FB09F1A1EB0A01B1FB6D
:1095E000F9F100FB0313CFE7EFF3118E88F3128834
:1095F000D5F808A02B68D90344BFC4F828CFD5F804
:1096000008A0D4F88C30D4F8281F5FFA8EFE8EF3B1
:109610001188D4F82CEF0B4400FB0EF1A1EB0A01EA
:10962000B1FBFEF100FB031352E7EFF3118188F366
:109630001288D5F808902B68DA0344BFC4F8286F65
:10964000D5F80890D4F88C30D4F8282FC9B281F31B
:109650001188D4F82C1F1A4400FB01F3A3EB090373
:10966000B3FBF1F300FB023271E7EFF3118188F3F2
:109670001288D5F808E02B68DB0344BFC4F828CF74
:10968000D5F808E0D4F88C30D4F8282FC9B281F38B
:109690001188D4F82C1F1A4400FB01F3A3EB0E032E
:1096A000B3FBF1F300FB0232F1E6D4F8243F002BC8
:1096B0003FF429AFD4F8103F1E6084F8216F22E7F1
:1096C000D4F8243F002B3FF4BEAE46F0DFFFBAE6ED
:1096D000502F002000ED00E010E000E000F01F023D
:1096E00040090123032803FA02F304D004280CD014
:1096F000022805D07047074A116C0B43136470476A
:10970000044A516C0B4353647047024A116B0B437C
:10971000136370470038024000285FD00368374A5F
:109720002DE9F04103F13F4404F57E0402EB94225D
:10973000012492F8982002F01F055209032A04FA26
:1097400005F456D0042A4FD0022A48D08588B5FAAD
:1097500085F0C0F11F00C0F3CC0603EB860600F0D5
:10976000070082000F24306A944020EA040030622F
:10977000306A01FA02F20243002132624FF0010E18
:109780000A464FF0030C02270EFA02F838EA0500E9
:1097900002F101021CD118680CFA01F420EA04005D
:1097A0001860186807FA01F606431E609E6826EAEC
:1097B00004069E6098689860586820EA080058601F
:1097C00058685860D86820EA0400D860D868D86023
:1097D000102A01F10201D7D1BDE8F0817047084A93
:1097E000556C2C435464B1E7054A156B2C43146344
:1097F000ACE7034A156C2C431464A7E750430708F1
:1098000000380240134B0268196821EA020119600E
:10981000596821EA0201596019680A431A60996877
:10982000026821EA02019960D96821EA0201D9603F
:109830004179102907D001F1804303F59E3319685F
:109840000A431A607047996811439960D9680A43BE
:10985000DA607047003C014000286BD0F0B5838887
:10986000B3FA83F3202B85B00446C3F11F024CD01A
:10987000314D32484FF00041104405EB820205F6AD
:10988000747731FA03F390F8A060C2F8347F05D002
:109890002B4A116821EA030111605361204600211F
:1098A00046F02CF8A3882268B3FA83F4C4F11F03AE
:1098B00003F0FC0101F1804101F59C3103F0030349
:1098C00098000F2702F13F438A68874022EA070287
:1098D00003F57E038A60C3F38723834088684FF0D3
:1098E00000420343354422FA04F48B604FF4406293
:1098F000012302A88DF80E300294ADF80C20FFF77A
:1099000081FF95F8783FF02B01D805B0F0BD0D4BE5
:109910009B5D8DF80430F02103224FF4807301A881
:1099200085F8781F8DF80520ADF806300DF08CF91C
:1099300005B0F0BD704700BF502F0020504307080E
:10994000003C01401CDF0708002869D0F0B583887F
:10995000B3FA83F3202B85B00446C3F11F024AD02B
:10996000304E314D16444FF0004005EB820230FA84
:1099700003F396F8A060C2F8341F05D02B4A116893
:1099800021EA0301116053612046002145F0B6FF32
:10999000A3882268B3FA83F4C4F11F0303F0FC0127
:1099A00001F1804101F59C3103F0030398000F277A
:1099B00002F13F438A68874022EA070203F57E03EB
:1099C0008A60C3F38723834088684FF000420343D3
:1099D000354422FA04F48B604FF40062012302A89C
:1099E0008DF80E300294ADF80C20FFF70BFF95F8C0
:1099F000783FF02B01D805B0F0BD0D4B9B5D8DF885
:109A00000430F02103224FF4807301A885F8781FF9
:109A10008DF80520ADF806300DF016F905B0F0BD53
:109A2000704700BF50430708502F0020003C014002
:109A30001CDF0708034BD3F8B820136A002BFCD1B6
:109A4000704700BF581E002010B4B8B10D4CD4F8B8
:109A5000803F102B05D15DF8044B0521002046F016
:109A600075BA03EB4302224482F8851F01210B449F
:109A700082F8840F82F8861FC4F8803F5DF8044B9B
:109A8000704700BF502F00202DE9F04FDFF8ACA346
:109A90002DED028B9AF8C81F002297B0CAF8B82F94
:109AA000CAF8BC2FCAF8C02FCAF8C42FCAF8B42FFE
:109AB00019B19AF8C92F8AF8B42F9AF8CA2F1AB197
:109AC0009AF8CB2F8AF8C32F9AF8CE2F1AB19AF8AA
:109AD000CF2F8AF8BE2F9AF8CC2F1AB19AF8CD2F33
:109AE0008AF8B92F9AF8D03F05935A1ED3B257B2CD
:109AF00003937B1C00F0AA80C54AC64E52F83790EB
:109B0000029602EBC70200231279019308EE102A95
:109B10001D46344698462678394630464DF044F87E
:109B200083463046BBF1000F1ED047F08BFAEA1D8A
:109B30001321D2B220B14FF0000E827180F807E0FD
:109B400046F0B8F820784DF061F84FF0070308F1BF
:109B5000010223714FF0010384F802806070CDF898
:109B600004B05FFA82F8E3700135042D04F10504B6
:109B7000D1D118EE100A029ECDF81080FFF7AEFD8D
:109B8000A549A64A4868024042F440324A600FB9EB
:109B9000019B5BB9A24C4820FFF7A0FD20460221A3
:109BA00066F010FEA26842F00102A2609A489C4A48
:109BB0004168BAF8D24F41F400014160516821F484
:109BC00080515160916B21F4401141F480119163F7
:109BD000D16841F46001D160956B85F44011C1F307
:109BE000015101EB81011F2000FA01FC25EA0C0C58
:109BF000112505FA01F141EA0C019163D16841F4A4
:109C0000E011D160956BC5F30151C1F10401C9B2F6
:109C100001EB810188404FF0100C25EA00000CFA9E
:109C200001F108439063E4B1BAF8D41FCAF8DC4FDD
:109C3000A1B1BAF8D62FCAF8E01F62B1019B7948EA
:109C4000521A90FBF2F2CAF8E42F6BB917B0BDECD0
:109C5000028BBDE8F08F744A1288EFE7734A1188CF
:109C6000E7E7734A1488DFE74846049966F0AAFDDF
:109C7000684B012003F114080723F278441CE4B276
:109C800052B375783279A5F10A0101EB410105EB78
:109C9000450C092D03FA01FE03FA0CFB02FA01F14F
:109CA00040F2A080D9F80C2022EA0E0E41EA0E0103
:109CB000C9F80C10421E02EB82021F21062801FA8D
:109CC00002FC05FA02F273D8D9F8341021EA0C012B
:109CD0000A432046C9F834200536B045CDD1D9F81D
:109CE0000820039942F40072C9F80820D9F8082026
:109CF00042F48072C9F80820D9F80820574442F08D
:109D00000102C9F8082097F9D82F022047F0D2F8AD
:109D1000044600289AD04668304647F0B9F8454ACC
:109D2000431E242101FB032393F89C50002D8DD169
:109D3000059983F89D10062283F89C20002885D081
:109D4000304647F0A5F864F071FB60680CF0E6FE61
:109D500007A80CF0A5FE049EA26837480792012EC2
:109D60008CBF4FF4806300230D9309F14C034FF433
:109D70008072CDE90A56089309904FF40033606869
:109D80000C9507A94FF400674FF40056CDE9102356
:109D9000CDE90E760CF096FE6268136843F001037D
:109DA0001360D9F8083043F08043C9F808304DE714
:109DB000C11FA0F10D0201EB81014FF01F0E02EB5C
:109DC00082020C280EFA01FC0EFA02F005FA01F1EB
:109DD00013D8D9F8302022EA0C0211432046C9F8E2
:109DE000301079E7D9F8101002FA0CF221EA0B0BC7
:109DF00042EA0B02C9F810205CE7D9F82C1005FAEA
:109E000002F221EA00010A432046C9F82C2063E748
:109E100000440708043F002000230140E030FCFF1D
:109E200000200140803801002E7AFF1F2C7AFF1F8E
:109E30002A7AFF1F88010020383F0020502F002081
:109E40002DE9F04101F108070C46804611463846DD
:109E500016466AF00DF9F0B10022012EC8E900465D
:109E6000C8F80C00C8F81400C8F80820C8F810207A
:109E70000BD0044601231946013325469E423C443B
:109E8000C5E90042F7D107FB01000023C0E9003318
:109E9000C8F818300120BDE8F08100BF70B5474E0A
:109EA00096F8F04F04EB440306EBC303650093F808
:109EB000F43F032B70D8DFE803F05B2A1F02254430
:109EC00006EBC505D5F8F80F002872D13C4B13F806
:109ED000A43C9C4260D0013404F00302934286F813
:109EE000F02F59D002EB420406EBC4040223C4F85D
:109EF000F80F84F8F43F70BD2B1906EBC303D3F8B9
:109F0000F82F72B1013AC3F8F82F002070BD2B1959
:109F100006EBC303D3F8F82F002AF3D1022283F80B
:109F2000F42F254406EBC50505F580521378013B57
:109F3000DBB2137093BB234A214BD2F8C01213F843
:109F4000A46CD5F8FC0F621C02F003024B1E032424
:109F5000B242034485F8F44FB3FBF1F0C5F8F80FB3
:109F60001AD0994218D80138C5F8F80F012070BDF1
:109F70004CF010FD80B1134B2C44D3F8C02206EBFB
:109F8000C404012102F51C5384F8F41F0F33B3FB02
:109F9000F2F3C4F8F83F70BD012070BD094BD3F84F
:109FA000C022012002F2E733B3FBF2F3C5F8F83F19
:109FB00070BD0138C5F8F80F002070BD502F00208B
:109FC0004840002088010020054B13F8A32C002AEC
:109FD000FBD1D3F8C03A03491B6801F10C001847C4
:109FE00048400020A83F002030B5044683B00D460D
:109FF0001C2001216AF03CF80190D0B14CB90F4B04
:10A00000012201A883F8C42A0AF09AFA204603B074
:10A0100030BD0B4A0379B2F8C412056143F0010365
:10A020004D1C048104830180A2F8C452037103B063
:10A0300030BD024B032283F8C42AE8E748400020E1
:10A040008801002010B5044650B1064BD3F8C83A39
:10A05000984701230022606484F830301846A264D7
:10A0600010BD00BF484000202DE9F84F3249DFF80D
:10A07000D4B091F8991E01240229074619461046CA
:10A08000CBF82C404FF000022C4C1D4618BF7F022D
:10A09000FDF7B6FF2A4B63626B02A362E36A40F2EC
:10A0A000FF5943F093034FF400704FF48A62E36268
:10A0B0000121C4F83890A0601020E26063F0DAFA61
:10A0C000012D40F251434E46C4F83890CA4640F242
:10A0D00052488EBF4FF0120998464FF011090A25D9
:10A0E000C4F838A00121A7604846C4F80C8063F08A
:10A0F000C1FA03464FF0000C40F2774201213720AD
:10A10000A6632BB900231846CBF82830BDE8F88F9A
:10A11000A663C4F808C0E26063F0ACFA013DA66330
:10A120000028EFD015F0FF05DAD10346CBF82C500C
:10A13000CBF82830BDE8F88F502F0020002C0140CC
:10A1400000E1F505581E00202DE9F843DFF8748082
:10A1500098F88450042D0446894617461E4608D0B8
:10A16000082D02D00020BDE8F883FEF715FD022877
:10A17000F8D101234A4620460021FFF775FF68B158
:10A18000FEF796FDD8F86C40002CEBD00022D8F8F2
:10A190007030D8F864101046A047E3E7084BC8F8C1
:10A1A0006090D3F88C20C8F864400523C8E91B767A
:10A1B000C8F8742088F884300120BDE8F88300BF17
:10A1C000502F0020581E00202DE9F84F2F49DFF8AE
:10A1D000C49091F8991E1E4602292D4B07464FF058
:10A1E000010418BF4702012E40F259481C6398BF72
:10A1F0004FF48B683B469346474640F2FF55B046C6
:10A200008CBF4FF0190A4FF0180A0A241E4640F27C
:10A21000FF53C9F838300121C9F808605046C9F821
:10A220000C7063F027FA03464FF0000C40F27742BF
:10A2300001213720C9F83850A3B9584641460122B8
:10A24000FDF7DEFE4646134A134B536276029662D2
:10A25000D36A43F09103D3620D4B00210846996203
:10A26000BDE8F88FC9F83850C9F808C0C9F80C2003
:10A2700063F000FA013CC9F838500028DDD014F032
:10A28000FF04C4D1024B1C63BDE8F88F502F00209F
:10A29000581E0020002C014000E1F5052DE9F04793
:10A2A000374C82B005460E461746984694F884000F
:10A2B00004280CD0082806D1E36FAB4207D0FEF784
:10A2C0006BFC0228F2D0012002B0BDE8F087DFF875
:10A2D000B8A02666DAF8909E6566C9F34F210F296B
:10A2E0004FEA592223D8D4F880300193FBB194F877
:10A2F0005A01E0B1B9F5005F13D0224831464FF45E
:10A300000072484469F07AFE09F50072C2F34F21E9
:10A310001029CAF8902E4FEA522202D0019B012B3D
:10A3200021D192B2013A174EAD1A0B4600E001233B
:10A3300032462846062601250021E766C4F87080CB
:10A3400084F8685084F88460FFF73EFF0028BBD093
:10A35000FEF7AEFCE66E86B12846236F616E0022E2
:10A36000B0470320B0E7E26F013B01320421C4E9AA
:10A370001F2384F884100220A6E70320A4E700BF6F
:10A38000581E0020506D0020502F002038B5044684
:10A3900088B118300D460AF0EBFB58B1084B046148
:10A3A000B3F8C4224561541C0A2182810172A3F8CA
:10A3B000C442083038BD034B012283F8C42A38BD9B
:10A3C00088010020484000202DE9F04FD0F808A077
:10A3D000DAF8088083B0B8F1000F33D01D466BB3B4
:10A3E00007468B469146002613E0AC4228BF2C4618
:10A3F0000022114609EB06033846009476B94B4615
:10A4000001225946C04760B12D1B264416D0DAF808
:10A4100008807C88002CE8D12C46E9E7C04700285A
:10A42000F2D1BAF80030094A01330A210020AAF813
:10A43000003082F8C41A03B0BDE8F08F012003B0E9
:10A44000BDE8F08F404603B0BDE8F08F48400020E3
:10A4500003681A78012A01D00020704793F904306C
:10A46000034A582101FB032393F8E50AC0B2704761
:10A470004840002010B50C4CD4F8C8321B78022B91
:10A4800010D1D4F8D00247F0AFF9D4F8D00208B117
:10A490002123C380012145F00DFC04484AF0F2FE5F
:10A4A000A4F8CC0210BD00BF88010020809698005F
:10A4B0002DE9F04FD0F80C8085B0D8F804700392E5
:10A4C000002F66D0D8F82C600446002E59D11D46C6
:10A4D0000123C8F82C008371002D68D0DFF8DCB0B0
:10A4E0008A46A388E3B9039B0095334401220AEB13
:10A4F00006012046B84750BBA946DBF8D41B05E04F
:10A50000DBF8D43B62885B1A934246D8A379012BCF
:10A51000F6D0A379032B13D19BF8C43A8A221CE00E
:10A52000AB4228BF2B4699460093039B012233443C
:10A530000AEB06012046B8470028DED0022831D0B9
:10A54000B5EB09054E4432D0D8F80470C9E70228AB
:10A550002DD11A4B93F8C43A9522CDE900A30420DB
:10A56000237817490AF08CFDB8F800200023013247
:10A57000A8F80020C8F82C301846A37105B0BDE833
:10A58000F08F3378009303780E49722202200AF08C
:10A5900077FD002005B0BDE8F08F07238BF8C43AA3
:10A5A0008322DAE7054B952293F8C43AD5E70023D6
:10A5B000C8F82C300120A371E0E700BF484000201C
:10A5C00028DE070808DE070870B5834CD4F8200C95
:10A5D00086B0002800F0F580D4F8243C002B00F071
:10A5E000F080D4F8283C002B00F0EB80D4F82C3C11
:10A5F000002B00F0E680D4F8303C002B00F0E18026
:10A60000D4F8343C002B00F0DC80D4F8385C002D0A
:10A6100000F0D780012309220C21A847002800F070
:10A62000D48028200BF062F9D4F8243CD4F8200C14
:10A630000DF1020208219847002800F0CB809DF917
:10A6400002309DF80220002B80F2C180560640F1B6
:10A65000BE80D4F8285CD4F8200C122301AA102163
:10A66000A847002800F0B6809DF805209DF804104A
:10A670009DF80700130943EA0113C90918BFA3F5A0
:10A68000805303EBD3735B109DF80610C4F8FC3BBA
:10A6900012029DF8083002F47062114315054FEA6A
:10A6A00003139DF8092043EA003348BFA1F5805108
:10A6B000C4F8001C180343EA1211BDF80A304FEA2F
:10A6C00002425BBA02F470229BB248BFA1F580112E
:10A6D00013431203BDF80C20C4F8041C48BFA3F5B3
:10A6E0008013C4F8083C53BA9AB21E04BDF80E3069
:10A6F00048BFA2F580325BBA1D04C4F80C2C9AB294
:10A70000BDF8103048BFA2F580325BBA1804C4F817
:10A71000102C9AB2BDF81230D4F8200C48BFA2F524
:10A7200080325BBA1904C4F8142C9AB2BDF8143004
:10A7300048BFA2F580325BBAC4F8182C9AB21B0449
:10A7400048BFA2F58032C4F81C2CD4F8303C542207
:10A750000621984700283DD00425D4F82C6CD4F865
:10A76000200C84F8E05B0DF1030380222821B04720
:10A7700080B39DF80320D4F8303CD4F8200C42F08C
:10A7800054020721984728B3D4F8303CD4F8200C61
:10A7900084F8E15B0C2209219847D8B10723D4F84B
:10A7A000385CD4F8200C1A460821A84790B10B4A0F
:10A7B000B2F8C432A4F8D83B0133A2F8C432012065
:10A7C00003E0012384F8C43A002006B070BD0223E0
:10A7D00084F8C43A0020F8E74840002088010020AF
:10A7E00038B5044610300D460AF0C2F968B1074B7F
:10A7F0004461B3F8C42205720024551C0A21028268
:10A8000084614181A3F8C452083038BD880100201A
:10A8100038B505460A460C46064829464BF0AAFDBF
:10A8200045F0800103484AF057FD231A5842584129
:10A8300038BD00BF50040020F0B53B4CD4F8C852DE
:10A840002B78022B95B018D0012B02D0002015B028
:10A85000F0BD95F904506B1CF8D0022DF6DC009188
:10A86000134694F8CC120246284665F007FD0028EE
:10A87000ECD0284665F0E4FDE9E72B6A002BE5D132
:10A880000DF10F0C8DF80F00002601200027CDE9F7
:10A890000833CDE90A12CDE90E6705938DF81C3017
:10A8A0000D9310931293CDF810C006908DF83000E0
:10A8B0008DF84400EFF31180102383F31288D4F84D
:10A8C000C8321B6A13B3069B04AE32461BB1D36970
:10A8D0001432002BFBD12B6A13B3996839B9934218
:10A8E0000AD0196829B15B6899680029F7D0143338
:10A8F000F3E70E4AC3E90026C0B280F31188D4F80A
:10A90000C822136A002BFCD10120A0E704ABC0B21F
:10A910002B6280F3118804F5327065F0D9F8EEE708
:10A92000024A1A60FFDE00BF8801002050040020A8
:10A9300030B505682B78022B83B017D0012B02D0DD
:10A94000002003B030BD044695F904000A460B49C7
:10A95000451C81F8403CF3D00228F1DC01F544614C
:10A960000091217965F0E4FC03B030BD2B6A002B27
:10A97000E6D101224BF0FEFC0120E2E74840002036
:10A9800013B53B4C00238DF80730D4F8503C1B78AE
:10A9900003F0FD02012A05D194F8542C12B90C22BF
:10A9A00084F8542C022B1ED0032B2ED001220B2115
:10A9B000304860F061FD042045F0DCFC2D480123A7
:10A9C0000DF10702002160F079FD00283BD09DF8D1
:10A9D0000730482B37D1284BC4F8443C274BC4F8E8
:10A9E000483C02B010BDD4F8580C46F0FDFED4F837
:10A9F000580C08B13523C380012145F05BF920488C
:10AA00004AF040FCA4F8540CD0E746F2A8110E20FE
:10AA100038F0ACFFD4F8503C5868002380F88C30F4
:10AA20001222372160F0FCFCD4F8503C0D2258680B
:10AA3000242160F0F5FCD4F8503C302258686A219B
:10AA400060F0EEFCB2E7D4F8503C1A78022A03D04A
:10AA5000032A07D00020C4E7D4F8580C4AF038FA8B
:10AA60000020BEE758681022372160F0D9FCF1E7DA
:10AA700048400020984C00201BB506089DB50608EC
:10AA8000809698002DE9F04FD0F80C8085B0D8F86A
:10AA900008700392002F66D0D8F82C600446002E70
:10AAA00059D11D460123C8F82C008371002D68D0B0
:10AAB000DFF8DCB08A46A388E3B9039B00953344F2
:10AAC00001220AEB06012046B84750BBA946DBF835
:10AAD000D41B05E0DBF8D43B62885B1A934246D86E
:10AAE000A379012BF6D0A379032B13D19BF8C43A99
:10AAF000F4221CE0AB4228BF2B4699460093039BEF
:10AB0000012233440AEB06012046B8470028DED074
:10AB1000022831D0B5EB09054E4432D0D8F8087080
:10AB2000C9E702282DD11A4B93F8C43AFF22CDE988
:10AB300000A30420237817490AF0A2FAB8F80020ED
:10AB400000230132A8F80020C8F82C301846A37161
:10AB500005B0BDE8F08F3378009303780E49DC220E
:10AB600002200AF08DFA002005B0BDE8F08F07231F
:10AB70008BF8C43AED22DAE7054BFF2293F8C43A8A
:10AB8000D5E70023C8F82C300120A371E0E700BF0F
:10AB90004840002064DE070844DE070830B51E4B3D
:10ABA0000021024603F64854C3F8542D83B0C4E98B
:10ABB00001110D25C3F8481DC3F8581D83F84E1D1B
:10ABC000204680220A2183F8485D08F015FA10B962
:10ABD000002003B030BD14200AF088FE29460DF194
:10ABE00007020123204608F097F90028F0D09DF8CD
:10ABF0000730FF2BECD10DF107022046092108F0A8
:10AC00008DF938B19DF8073013F0030F0CBF012008
:10AC10000020DEE70120DCE7484000202DE9F04F6E
:10AC2000D0F808A0DAF80C8083B0B8F1000F33D068
:10AC30001D466BB307468B469146002613E0AC4297
:10AC400028BF2C460022114609EB06033846009423
:10AC500076B94B4601225946C04760B12D1B2644A8
:10AC600016D0DAF80C807C88002CE8D12C46E9E775
:10AC7000C0470028F2D1BAF80030094A01330A214E
:10AC80000020AAF8003082F8C41A03B0BDE8F08FA3
:10AC9000012003B0BDE8F08F404603B0BDE8F08F5F
:10ACA000484000202DE9F04F8D4E8E4C85B000239A
:10ACB00005460F464FF4F072202106F5566086F8DF
:10ACC0005C3D019769F00CFA202106F574604FF4A1
:10ACD000F07269F005FADFF81CE283494FF0320C9C
:10ACE0004FF010084FF47A704FF00109AB46DEF8D0
:10ACF0000430C3F30803002B40F0D280EFF311833C
:10AD0000002B40F0CD80D4F88C208F68D4F88C30A4
:10AD10009A42F8D1D4F8303F9F42F4D8D4F82CAFFF
:10AD200000FB0AF3DB1BB3FBFAF300FB0232DEF895
:10AD30000430C3F30803002B40F09280EFF311833B
:10AD4000002B40F08D80D4F88C308F68D4F88C5074
:10AD5000AB42F8D1D4F8305FAF42F4D8BA46D4F859
:10AD60002C7F00FB07F5A5EB0A05B5FBF7F500FB0B
:10AD700003539B1AB3F57A7FD9D3BCF1010CB6D13A
:10AD80005A4F97F829205D46002A64D097F82A3058
:10AD9000013B022B5FD803EBC30103EB830E07EBF0
:10ADA000C100014607EBCE0C07F12C08C1F8548115
:10ADB0009CF8CC8007F1CC0101EBCE0100F5AC7022
:10ADC0004FF0010EB8F1020FF863F96287F8B8E0AE
:10ADD00000F0E181DBB203EBC30307EBC303D3F85D
:10ADE0004431CCF8D030B3B302214FF480738CF8E7
:10ADF000CC10ACF8D83007F1400107F17C03CCE966
:10AE000039134FEA121808F1FF38B8F1050F02F0B4
:10AE10000F0200F27781DFF8E09009EB4803B3F806
:10AE2000841041FA02F3DB0740F16C81012303FA3D
:10AE300002F2013A02EA0100C84466F045FB98F8C4
:10AE400090202B4B104403EBC00078638379002BD8
:10AE500054D0412B52D06FF0010005B0BDE8F08F07
:10AE6000EFF3118788F31288D1F808A00B68DD038F
:10AE700044BFC4F8289FD1F808A0D4F88C30D4F887
:10AE8000285FFFB287F31188D4F82C7F2B4400FB96
:10AE900007F5A5EB0A05B5FBF7F500FB035368E7DB
:10AEA000EFF3118788F31288D1F808A00B68DB0351
:10AEB00044BFC4F8289FD1F808A0D4F88C30D4F847
:10AEC000282FFFB287F31188D4F82C7F1A4400FB97
:10AED00007F3A3EB0A03B3FBF7F300FB023226E709
:10AEE00048400020502F002010E000E0405100209A
:10AEF0001431002000ED00E0504307082323C380F5
:10AF0000092144F0FBFC7B6B002B00F06F811A6879
:10AF1000F86B9B881383D4F8C424B549B1EB920F26
:10AF20004FEA920380F05181B14AB2EB530F80F0A7
:10AF30003881B2EB930F80F03881B2EBD30F80F001
:10AF40003881B2EB131F80F03881B2EB531F80F0D1
:10AF50003881B2EB931F80F036814FF480733B86CB
:10AF6000002800F01481A34B00264FF6FF795E60A5
:10AF7000A3F5F871C7F81C621E81A7F82692FFF7A7
:10AF800005FA0346C7F8200200283FF464AFDFF853
:10AF900074C28268BCF8C412D2F80480A7F81E12EA
:10AFA00001318DF80D90ACF8C412B8F1000F06D045
:10AFB000012332460DF10D01C047D7F82032184663
:10AFC0000DF10E0201238C21FFF7FEF99DF80E30E2
:10AFD0001B2B40F0FE807B6B012287F81C220BB1FB
:10AFE0002322DA800DF10F0201230A21D7F8200273
:10AFF00040268DF80F60FFF711FE0DF10D028A213A
:10B00000D7F820020123FFF7DFF99DF80D1097F81C
:10B010002820C1F3801187F82812002A00F09A80B6
:10B02000022A7FD0D4F8C434734AB2EB930F80F075
:10B03000CE80B2EBD30F80F0B680B2EB131F80F05E
:10B04000B680B2EB531F80F0B680B2EB931F80F056
:10B05000B680B2EBD31F05D2B2EB132F34BF4FF43F
:10B060008076802697F82C22A7F82A62182A13D116
:10B070006248019C00225B08B3FBF6F3A0FB0303CC
:10B0800010465B0B66F30F0064F30F0263F31F407F
:10B0900061F31F42C7E98C20D7F820023E860224C4
:10B0A00001230DF10F0200218DF80F40FFF7B6FDCF
:10B0B000C82045F093F8D7F8200201230DF10F02C4
:10B0C0008021FFF781F9C0B19DF80F3003F0020332
:10B0D0008DF80D30002BEED16A78AB78297887F89F
:10B0E0003812C2F12002C3F11003002087F8392280
:10B0F00087F83A3205B0BDE8F08F9DF80D30002B8F
:10B10000D9D1E9E7D4F8C42439494FF0000CB1EBA8
:10B11000920F4FEA9203C7F834C0FFF405AF022341
:10B120003B8620E7D4F8C4343548B0EB930F58D2AF
:10B13000B0EBD30F37D2B0EB131F38D2B0EB531FA5
:10B1400039D2B0EB931F3AD2B0EBD31F34BF802675
:10B15000402687E7D4F8C434254AB2EB930F36D2A1
:10B16000B2EBD30F1FD2B2EB131F20D2B2EB531F9F
:10B1700021D2B2EB931F22D2B2EBD31FBFF472AF36
:10B18000B2EB132F34BF4FF4807680266AE7012399
:10B1900086F8C43A5FE69CF8D93073448CF8D9300D
:10B1A0002FE60423DBE604265CE70823D7E608261F
:10B1B00058E71023D3E6102654E72023CFE62026B5
:10B1C00050E74023CBE68023C9E60223C7E60226E8
:10B1D00048E7786B38B1202144F090FB4FF0FF3006
:10B1E0003BE616463EE74FF0FF3036E6F86B92E658
:10B1F000404B4C005C530020809698005917B7D103
:10B20000002D310188010020014601484AF064B850
:10B210007C530020014488420ED010B40346074CF2
:10B22000074813F8012B04FB00F0994280EA020062
:10B23000F7D15DF8044B7047014870479301000156
:10B24000C59D1C81094B93F83631042B08D9053B69
:10B25000032B08D801231A4600B10370104670472B
:10B2600000230122F8E700231A46F5E7502F0020BB
:10B2700010B5084C0020D4F8FC329847D4F8E032DE
:10B280001BB1B4F8E80200219847042384F8F03297
:10B2900010BD00BF40510020F0B40D6800240CE048
:10B2A000BCF1050F18D8A0F137030A2B14D104EB19
:10B2B000840415F8010B03EB4404A0F13003DEB263
:10B2C000092EA0F16107A0F1410CF0D9052FE7D8B4
:10B2D000A0F157030A2BEAD00D601460F0BC704750
:10B2E0009FED727A07EE901A20EE070AF8EE677A61
:10B2F00027EE800AFDEEC07A17EE903A2033402BFD
:10B3000000F2C480DFED6A7AB4EEE70AF1EE10FADB
:10B31000F0EE407A0CDD9FED676ADFED676AB0EE14
:10B32000677AB4EEE67AF1EE10FA77EEC67AF6DCDA
:10B330009FED627AF4EEC77AF1EE10FA0CD59FED2C
:10B340005D6ADFED5F6AB0EE677AB4EEE67AF1EE41
:10B3500010FA77EE867AF6D49FED5A7AF4EEC77A31
:10B36000F1EE10FA00F38A809FED577AF4EEC77A77
:10B37000F1EE10FA44BF9FED517A77EE677A27EE2F
:10B38000A76ADFED525A9FED527ADFED526AA6EEC0
:10B39000257A67EE865AE6EE076AB6EE007AE5EEA3
:10B3A000A67A27EE877ADFED476A70EE267ABDEE41
:10B3B000E76A16EE103A2033402B64D8B4EEE60A62
:10B3C000F1EE10FA0CDDDFED3B5A9FED3B6AF0EE3B
:10B3D000676AF4EEC66AF1EE10FA77EEE57AF6DC0B
:10B3E000DFED366AF4EEE67AF1EE10FA0CD5DFED19
:10B3F000315A9FED336AF0EE676AF4EEC66AF1EEF9
:10B4000010FA77EEA57AF6D4DFED2E6AF4EEE67A3E
:10B41000F1EE10FA3DDDDFED266A76EEE77A67EEB3
:10B42000A75A9FED2A5A9FED2A6ADFED2A6AA5EEF8
:10B43000856A27EEA55AE5EE866AB8EE006AE5EE63
:10B44000267A67EE867AC7EE206AB7EE006A76EE55
:10B45000865A76EE666A86EE257A80ED091A67EEE0
:10B46000277A66EE876AC0ED017AC0ED037A80ED37
:10B47000007A80ED027AC0ED046A70479FED0C7A85
:10B4800077EE677A7BE7DFED147ADCE79FED127ADF
:10B4900089E7DFED0D6AF4EEE67AF1EE10FA44BFCB
:10B4A000DFED066A76EEE77AB9E700BF27D4D23639
:10B4B000DB0F4940DB0FC940E4CB1641DB0F49C02D
:10B4C000E4CB16C1DB0FC93FDB0FC9BF92E741B91F
:10B4D0009730083C15A82ABE000000002DE9F8436B
:10B4E000DFF8EC83E34DD8ED3E7A95F80043F8EEB3
:10B4F000670A08F27C632DED028BC3ED000A002C75
:10B5000076D1DFF8D0C398F88876C8F884469CF8DE
:10B510000040002F40D0B5F806339FEDD76A9FED6D
:10B52000D77A07EE903AF8EE677A20EE877AC6EE81
:10B53000276A0023012FC5F8083376EE876AC7EE25
:10B54000267AC5EDC37A27D0022FC5F81033C5ED92
:10B55000C57A21D0032FC5F81833C5EDC77A1BD0A3
:10B56000042FC5F82033C5EDC97A15D0052FC5F8CD
:10B570002833C5EDCB7A0FD0062FC5F83033C5ED93
:10B58000CD7A09D0072FC5F83833C5EDCF7A03D06F
:10B59000C5F84033C5EDD17AB94B9FEDBA6A93F83F
:10B5A00056319FEDB97A9FEDB90AB94A07EE903A44
:10B5B000F8EEE77A9CF8583BC6EE276A1C4414FB69
:10B5C00007F7FFB207EE907A60EE870AF8EEE77AA7
:10B5D000C2ED006AA7EEA00A67F0A0FABDEC028BEC
:10B5E000FCEEC07A17EE903A88F8D837BDE8F883B9
:10B5F000BCEEE06A9FEDA77A95F80133B5F8042315
:10B600009FEDA52ADFEDA56ADFF8C8C298F8887615
:10B61000C8F884C6F8EE465A07EE903A87EE255AE7
:10B620008CF8004007EE102AB5F802238CED025A80
:10B6300016EE103AF8EE677A06EE102AB8EEC77AE0
:10B6400027EE822AB8EE466A67EE266ACCF81430F6
:10B65000012322EE252ACCED017A8CED036ACCED94
:10B66000046A88F88036002F96D0DFED8D7A9FED42
:10B670008D4ADFED8D5AC7EE871AC7EB0716A7EB89
:10B6800007190CEBC6064FEAC9094FF0000EB1EEE0
:10B69000611A9FED866A09EB06009FED853ADFEDA2
:10B6A000853ADFED856A0346002207EE902AB8EE60
:10B6B000E77A27EE027AFDEEC77A17EE901A20316C
:10B6C000402900F2D080B4EEC47AF1EE10FAF0EE28
:10B6D000477A0CDDDFED794A9FED795AF0EE672A63
:10B6E000F4EEC52AF1EE10FA77EEE47AF6DCF4EE29
:10B6F000E57AF1EE10FA0CD5DFED704A9FED715A44
:10B70000F0EE672AF4EEC52AF1EE10FA77EEA47A8D
:10B71000F6D4F4EEC67AF1EE10FA40F39A8074EEA5
:10B72000677A27EEA75AB0EE630AA5EE030ADFEDAB
:10B73000664AE5EE004A65EE272AB7EE005AE2EEC9
:10B74000A47AB0EE458AF0EE454AA1EEA78AE1EE72
:10B75000274AC5EE088A84EE880A77EE067ABDEE9F
:10B76000E75A15EE101A203140296FD8B4EEC67A88
:10B77000F1EE10FA0CDD9FED515A9FED517AF0EE8B
:10B78000674AF4EEC74AF1EE10FA77EEC57AF6DCB6
:10B79000F4EEE57AF1EE10FA0CD59FED485A9FEDE4
:10B7A000497AF0EE674AF4EEC74AF1EE10FA77EE06
:10B7B000857AF6D4F4EEC67AF1EE10FA3CDD74EE3A
:10B7C000677A27EEA75AF0EE632AE5EE032A9FED8B
:10B7D0003E7AA5EE227A65EE274AB8EE005AE4EEEC
:10B7E000877A67EE857A87EE887A0132A24203F182
:10B7F000280343ED048A03ED037A03ED017A43ED58
:10B80000028A83ED000AC3ED056AC3ED026AC3ED47
:10B81000016AC3ED046AC3ED036AFFF646AF7830F0
:10B8200086427FF43AAF0EF5707EBEF5346F06F5B2
:10B8300070767FF42EAF6EE69FED247AF4EEC77A31
:10B84000F1EE10FA48BF75EEE77ABAE7F0EE667AE5
:10B85000C9E79FED1E5AF4EEC57AF1EE10FA48BF23
:10B8600075EEE77A5DE7B7EE000AF0EE408AB0EEDB
:10B87000408A72E74051002083F9223EBD37863569
:10B88000502F0020555555406E12833A48E1FA3E3C
:10B89000DC0700100060EA4827D4D2360AD7233CE0
:10B8A00000004842DB0F4940DB0F49C0DB0FC93FB6
:10B8B00092E741B99730083C00000000DB0FC94017
:10B8C000E4CB1641E4CB16C115A82ABEDB0FC9BFD5
:10B8D000080000105C1800102DE9F04F07EE900AE8
:10B8E0002DED068B9FEDF07AF04BDFEDF16AB3F8AA
:10B8F0004823F04F93F84E53C7F82C08B8EE679AD8
:10B900000AEE102A87EE095AB3F84A23C7F8E85717
:10B9100083B008EE102AB3F84C23DFEDE77AB8EED7
:10B920004AAA08EE902AB8EEC88A3AEE0A7AF8EEE9
:10B93000E88AB4EEC78AF1EE10FA68EEA77AB4EEA0
:10B94000E65A07F2DC73B8BFB0EE478A0022F1EE88
:10B9500010FA83ED028A83ED01AAC3ED007AC7F8DD
:10B96000EC2700F1038307EE905AF8EEE77AB7EE82
:10B97000007AC7EE279AD14BDFF878A31946143125
:10B980009C4601919AF8A82003F12C04F6EE005A87
:10B9900065EE256AF7EE007A86EE887ADFEDC83A22
:10B9A000DFEDC84A9FEDC86AD3ED05AAB4EEE77A89
:10B9B000F1EE10FAB8BFB0EE677ABDEEC77AB0EE1E
:10B9C000004A17EE106AB8EEC77AC7F8886AC5EE63
:10B9D000076A87EE875A66EEA36AACEC015A8AEED4
:10B9E000267AC8EE267A37EE257A77EEA57AB4EE77
:10B9F000C47AF1EE10FAB8BFB0EE447AF4EEE47A0D
:10BA0000F1EE10FABDEEC77A88BFF0EE647A17EE59
:10BA1000100AFDEEE77A00F1FF3B17EE901ABBF13A
:10BA2000230FA8BF4FF0230BCCED006A012E01F1CC
:10BA3000010CB8BF0126BCF1230F2BEAEB7BE046DB
:10BA400029EE066AA8BF4FF02308E345C8BFD846D1
:10BA5000C7F8940AC7F8981A83ED046AA8EB0B0795
:10BA600097FBF6F70137002A40F0E380DFED970AF5
:10BA7000DFEDA15A9FEDA12A9FED955ADFEDA32A94
:10BA80009FEDA33ADFEDA33A9FED924ADFEDA21AB4
:10BA90000AF1AC0107EE902AB8EEE76A66EE207A6A
:10BAA00037EEA57AFDEEC76A16EE903A2033402BAA
:10BAB00000F21582F3EE026AB4EEE66AF1EE10FAD5
:10BAC0000CDDDFED904ADFED8E6AB0EE471AB4EE82
:10BAD000E61AF1EE10FA37EE647AF6DCB4EEC57AC7
:10BAE000F1EE10FA0CD5DFED874ADFED876AB0EE94
:10BAF000471AB4EEE61AF1EE10FA37EE247AF6D4CD
:10BB0000B4EEE57AF1EE10FA40F3FE81DFED726AF1
:10BB100036EEC77A67EE076AB0EE431AA6EEA21AAF
:10BB2000B0EE630AA1EE260A67EE264AFDEEE76A4A
:10BB3000A4EE807A16EE903A2033402B27EE047A5A
:10BB400000F2D781DFED656AB4EEE66AF1EE10FA35
:10BB500040F300829FED6B0A9FED691AF0EE676A71
:10BB6000F0EE664AF4EEC14AF1EE10FA76EEC06AE3
:10BB7000F6DC9FED591AF4EEC14AF1EE10FA13D536
:10BB80009FED601ADFED604AB0EE660AB4EEE40A9B
:10BB9000F1EE10FA76EE816AF6D4DFED506AB4EE7B
:10BBA000E66AF1EE10FA0CDD9FED566ADFED546A9D
:10BBB000F0EE674AF4EEE64AF1EE10FA77EEC67A56
:10BBC000F6DCF4EEC57AF1EE10FA0CD59FED4D6A75
:10BBD000DFED4D6AF0EE674AF4EEE64AF1EE10FA58
:10BBE00077EE867AF6D4F4EEE57AF1EE10FA40F3C9
:10BBF0008381DFED396A76EEE77A67EEA76AF0EEC9
:10BC0000434AE6EEA24AB0EE631AA4EEA61A27EE65
:10BC1000A66AE6EE017A67EE847A0132242A81ED83
:10BC2000007AC1ED017A01F108017FF433AFDFED55
:10BC30002CAA4FF0000944E9059B44E902764FF431
:10BC400090720021204644F80C8C68F049FA4FF4B9
:10BC50009072A018002168F043FA224B04F5157485
:10BC6000A342E8D1019BDFED207AC3ED00AA0123B6
:10BC700029EE279A8AF8A830002D00F02B81DFEDFD
:10BC80001B7A1B4E9FED142ADFED112AC7EEA81A6E
:10BC9000A6F1140406F5117738EE4A8AB1EE611A5E
:10BCA00069EE889A3EE000BF0024744940510020AC
:10BCB0000000FA44080000100AD7233C940A001040
:10BCC000398E633C00000C429C534937C3B8B23DE7
:10BCD000DB0F49C072F97F3FDB0F49400000104283
:10BCE000BC297E3FBC11001027D4D2360000484248
:10BCF000F807001000110010DB0FC93F0000000022
:10BD0000E4CB1641DB0FC940E4CB16C192E741B941
:10BD10009730083C15A82ABEDB0FC9BF000010C22F
:10BD20000000807F5FED0C5A5FED0C6A23463046C1
:10BD30000022B7EE005A07EE902AF8EEE77AB6EE48
:10BD4000007A77EE877AB0EE4A7AA7EEA97AF0EE1B
:10BD5000477A29EE077AE0EC017AFDEEC77A17EE12
:10BD6000901A2031402900F2D780B4EEC27AF1EE69
:10BD700010FAF0EE477A0CDD1FED1E4A5FED204A07
:10BD8000B0EE676AB4EEE46AF1EE10FA77EEC47AC8
:10BD9000F6DCF4EEE27AF1EE10FA0CD51FED274A4C
:10BDA0005FED274AB0EE676AB4EEE46AF1EE10FA8E
:10BDB00077EE847AF6D4F4EEE57AF1EE10FA40F3F9
:10BDC000B58072EE677A67EEA74A5FED303A1FEDF5
:10BDD000304A1FED306AA4EEA34A67EEA43AA4EEFF
:10BDE000246AF0EE454AE3EE867AB0EE456AE1EE6B
:10BDF000274AA1EEA76A84EE864AC5EE064A77EE88
:10BE0000257AFDEEE73A13EE901A2031402900F230
:10BE10008A80B4EEE57AF1EE10FA0CDD1FED473AB8
:10BE20005FED493AB0EE677AB4EEE37AF1EE10FADC
:10BE300077EEC37AF6DCF4EEE27AF1EE10FA0CD586
:10BE40001FED503A5FED503AB0EE677AB4EEE37A08
:10BE5000F1EE10FA77EE837AF6D4F4EEE57AF1EEAD
:10BE600010FA6DDD72EE677A27EEA73A5FED590A98
:10BE70005FED593A1FED597AE3EE203A63EE270A57
:10BE8000A3EE237AF8EE003AE0EE877A67EEA37A23
:10BE900087EE867A0132AA4203F12803C3ED0B4AEA
:10BEA00083ED0C7A83ED0E7AC3ED0D4A83ED0F4AD4
:10BEB00083ED145AC3ED116AC3ED106AC3ED136A22
:10BEC000C3ED126A7FF437AFC834A74206F11406F7
:10BED0007FF428AF03B0BDEC068BBDE8F08FFDEE1C
:10BEE000E76AB0EE427A16EE903A2033402B7FF6A6
:10BEF00029AEF0EE427A90E6F4EEE17AF1EE10FA35
:10BF000048BF75EE677A78E6B4EEE17AF1EE10FAA2
:10BF100048BF35EE477AFDE5B7EE004AF0EE444AF9
:10BF2000B0EE446A6BE7F0EE667AB1E71FED866A21
:10BF3000F4EEC67AF1EE10FA48BF72EEE77A42E705
:10BF40001FED8B7AF4EEC77AF1EE10FA48BF72EE6D
:10BF5000E77A89E75FED8F6AB4EEE66AF1EE10FAF0
:10BF600048BFF0EE676A3FF50BAE2AE65FED949AA4
:10BF7000C7F8E8271546FEE4084800230246117872
:10BF8000022902F1060204D00133062BF7D100206A
:10BF9000704703EB430300EB43007047901E002003
:10BFA00000B50021084B83B00846C3F8501336F0A3
:10BFB000FDFE0422054B01930DEB0201062036F035
:10BFC000E9FE03B05DF804FB405100205475C52A1A
:10BFD00070B5461E00F13105344614F8011F601E8D
:10BFE000801BFF29C0B201D036F0E0FEAC42F4D194
:10BFF000A02058F08FFC0121022036F0D7FE40F23D
:10C00000E93401E0013C04D04220FFF7FDF80028AC
:10C01000F8D16220FFF7F8F81321242036F0C6FE8D
:10C020002520092136F0C2FEBDE87040A02058F05E
:10C0300071BC00BF0D4B0E49D3F8C4340A8810B44C
:10C040000C4C5B08A4FB034322F45C729B0C01388C
:10C050001204013B012480B2120C9BB20A80C86218
:10C060000B858C825DF8044B704700BF502F002079
:10C07000000C004083DE1B4338B50C4C0546A11C68
:10C08000D52256F05FFF2B68A342C5E90043A3EB1E
:10C0900004000AD004F14002611C2960237802F8F0
:10C0A000013BD5E90041A142F6D138BD94540020AE
:10C0B00010B5204B84B0C82403F5657103F25532E6
:10C0C0002128CDE9022183F8544318D00CD8022846
:10C0D0001ED0082825D102A8019010F0FFFA01987F
:10C0E000FFF7CAFF04B010BD29281AD102A8019099
:10C0F00010F0AAF90198FFF7BFFF04B010BD02A825
:10C10000019010F0EBF90198FFF7B6FF04B010BDF5
:10C1100002A8019010F02EFB0198FFF7ADFF04B0CC
:10C1200010BD02A8019010F04FFA0198FFF7A4FF8C
:10C1300004B010BD4051002010B582B00A788DF8CF
:10C140000720040A18238DF804308DF806008DF8B6
:10C15000054058F06DFA01AA0348114604234AF03D
:10C16000A9F902B010BD00BF7C53002010B582B009
:10C17000040A192200238DF801408DF800200C4696
:10C180008DF803308DF8020058F052FA6A460548DF
:10C19000114605234AF08EF99DF80430237002B051
:10C1A00010BD00BF7C53002010B58CB000234CF2B2
:10C1B0000502044601A9CDE90633CDE90833ADF8FF
:10C1C00000208DF8023003220B930123CDE90312E6
:10C1D0008DF814308DF82830CDF808D04AF0B0F939
:10C1E000204602A948F094FE20464AF0A9F99DF89D
:10C1F00006000CB010BD00BF2DE9F043764D774F1F
:10C2000083B005F138002422002167F069FF97F818
:10C21000D5430023EB65002C39D1714ED6F800319F
:10C2200053B39B6A43B36F489847836823B303882B
:10C230006D4F013B9BB2BC46384600210678032E69
:10C2400000F106001CD001310629F7D1002239780F
:10C25000022907F1060700F09E800132062AF6D176
:10C26000E96D052908D0481C02FB01C2E8650220DF
:10C270000021938010705180204603B0BDE8F08308
:10C28000062303FB01514B8F013B9BB2DEE797F87E
:10C29000D40307F57773C7F8D83310B9504E00248C
:10C2A000BCE744F0CFFEC7F8E40318B183790BB1C3
:10C2B000412BF3D121464D4848F09EFF044600280B
:10C2C000ECD0D7F8D833474A9868C3F89C2008B117
:10C2D0002023C380092143F0EDFCD7F8D833404E2A
:10C2E000986845F081FA4248D7F8D88348F0CAFFE9
:10C2F0004FF00109A8F804003220C6F8208186F822
:10C30000249144F037F80423D7F8D8034FF0000CF9
:10C310000DEB03029F21CDF804C049F0D7FF9DF833
:10C3200005809DF804309DF806104FEA082848EA79
:10C33000034848EA0108414606F5807057F0B8FD09
:10C3400000287FF46BAF4046FCF704F90346002851
:10C350007FF464AF9DF806009DF805209DF8071056
:10C36000000240EA0240234A0843904217D0C6E93F
:10C370004233A6F80431A6F81031FCF7EBF88046FA
:10C3800000287FF44BAF97F8D40344F05BFE48F0ED
:10C390009FFD444642E7062101FB02C267E7164AB9
:10C3A000C6F804214FF400334FF00062C6F808319C
:10C3B0004023A6F81031C6F80C2186F81291FBF73D
:10C3C0007FFE06F5807086F8199157F0BDFC0B4B87
:10C3D000C6F8003122E700BF581E0020405100205F
:10C3E000502F002050300020901E00201C550020AF
:10C3F000404B4C0021AAEF000004000850430708FE
:10C400002DE9F041C54BC64EC64DC74C0822C3F8B6
:10C410008820336B82B043F00103336307464FF447
:10C42000C052284640F2023388466946CDE90023CF
:10C430000AF04EFD6B6AC4F8608A23F470436B62A5
:10C440006B6AC4F8687A43F420436B626B6AB7493D
:10C45000C4F8641A23F470236B626B6AB448C4F89E
:10C460007C0443F420236B62736CB249C4F88014DB
:10C4700043F480437364736BAF48B049C4F88C04D1
:10C4800043F0800302257363AD4F84F88454AD4EAE
:10C49000AD4DC4F8D0144FF0A043C4F88834AB4A73
:10C4A000C4F8987403F53463A1F5D071C4F8D4547A
:10C4B000C4F89C64C4F8D834C4F8A0140123DFF88D
:10C4C000BCC2C4F894C407F51077A5F5E465A6F5D9
:10C4D000A066A1F58C61C4F8DC74C4F89054C4F86B
:10C4E000486584F8873405F5A075536106F5B07684
:10C4F000C4F80C1584F88E351946954B954AC4F846
:10C500001455A7F5BC67A035C4F82065924EC4F851
:10C510001C75C4F8243507F5D45703F56953C4F8DE
:10C5200028554FF050250020DFF854E2C4F84C2580
:10C53000ACF5687C02F5A042C4F85075C4F85465A7
:10C5400007F5A04706F5A046C4F85835C4F85C5571
:10C55000A3F5485304F27C45C4F86025C4F8686527
:10C56000C4F88835C4F810E5C4F818C50246C4F804
:10C5700064752B4684F89005402683F81C21A3F8A7
:10C5800022210132042AC3E9496083F81D1183F88E
:10C590001F01C3F8300103F12803EED10022114638
:10C5A0002B46402083F87423A3F87A230132042A0F
:10C5B000C3E9DF0183F8751383F87713C3F8881391
:10C5C00003F12803EED14FF0A04364489A6822F0AB
:10C5D00001029A60DA6842F04002DA6009F0FEFC7B
:10C5E00094F885340022212161F317420BB142F403
:10C5F000801294F87F14D4F8883401299A6300F0EB
:10C60000E480DA68D4F88865D4F88C04C2F3076152
:10C6100021F0600141F0400161F31F620021DA6006
:10C620003160026861F3CC22026094F88724012A09
:10C6300000F0B88010214A480AF022F848480AF071
:10C6400005F8D4F88C0494F87D3400224FF0FF31C3
:10C65000026142618161C26153B305F11407414E29
:10C66000114607EB83074FEA830C4FF0FF0E56F895
:10C67000042F1368002BACBF00234FF09043B74248
:10C6800013601161C2F808E0F1D105F15003364999
:10C6900063440027FF2651F8042F1568002DACBF16
:10C6A00000254FF090459942156017619660F2D1D0
:10C6B000036994F87F1443F480730129036161D006
:10C6C000D4F8882429480023936100294FF0FF33D0
:10C6D0006FF0804151615360516114BF00231023FA
:10C6E000906143F470139069D4F8641A43F4605372
:10C6F00043F00803034393619368096843F001031F
:10C70000936088471A4B1B4ADA6068461A4B0093BD
:10C710000AF09AFA02B0BDE8F08100BF00E100E043
:10C72000003802400000024040510020280500204F
:10C73000080401004000400100080050000B0050B8
:10C740002009005040090050200B0050003C0140DF
:10C75000C00500500010005000300050C8550020A7
:10C76000BC550020D05500200C5600200008008049
:10C7700000ED00E00005FA05430200010009005049
:10C7800020050050D4F88824144B03636FF08041D7
:10C79000134D00234FF0FF309361516150605161A0
:10C7A00095619EE701680F4A0F4E41F00301016059
:10C7B000802159629E62C3F80421E022C3F8082157
:10C7C000C0F24002C3F80C2134E79A6822F03E011F
:10C7D00041F02A0161F307029A6012E70301810028
:10C7E00000080080A00040008000200010B51A4C16
:10C7F00094F8710AC0B9194B83F8B100C3F8B400BA
:10C8000094F8743A012B05D0022B21D0D4F8783A51
:10C810001BB910BD124BC4F8783A12495B68BDE8E9
:10C820001040A1F10C00184744F00CFC94F8732A56
:10C830000A49003A18BF012281F8B120C1F8B400BA
:10C840000028DDD01F22C280202143F033FAD7E731
:10C85000054BC4F8783AE0E740510020581E00200C
:10C8600068050020BC5B00204405002099B10A6BDC
:10C87000824216D9154BD3F8BC2A914221D34C39A8
:10C8800091421ED30B6B9842F9D38B6B9842F6D82A
:10C890000B46184670470D4BD3F8BC1A0A6B9042F2
:10C8A00012D30B680BB9F4E70A6B90420B4602D324
:10C8B0008A6B9042EDD951F84C3F002BF4D11846C9
:10C8C00070470023184670470A46D8E740510020B9
:10C8D0002DE9F047CC0143D10346224A43F8082B07
:10C8E0004FF0FF324260022418467E26DFF878803F
:10C8F000D8F8C09A2644013E051D49466FF070479E
:10C900004FF0010A08E0A3421CD0631C45F8043C28
:10C91000321B1C460435CAB10B6BA34202D88B6B89
:10C92000A34204D22046FFF7A1FF014690B10A7945
:10C930004B6B002AE7D1A34204D0E6D245F8042C81
:10C94000631CE5E745F8047C631CE1E7C8F8C01AFE
:10C95000BDE8F08745F804AC321B631C4946D8E7B4
:10C960008026C3E7F8FFFF0F4051002070B44479E0
:10C9700041BB03684FF400524FF40076202502219A
:10C980003CBB1A8C22F001021204120C1A841A8B7E
:10C99000188C22F0F30280B2120420F00A00120C6C
:10C9A000014342F0010241F001011A8319841A8BFC
:10C9B00022F00C021204120C1A831A8B92B270BC71
:10C9C0001A83704700220368164615461146002C4C
:10C9D000D7D0042C21D0082C38D0198C21F48051C8
:10C9E0000904090C19849C8B1D8C45F6FF7040F6D8
:10C9F000FF4128402140024342F4805241F48071BB
:10CA000099831A849A8B22F440621204120C9A833E
:10CA10009A8B92B270BC9A8370471A8C22F01002E3
:10CA20001204120C1A84188B198C89B240F6FF423A
:10CA300021F0A00102400D4342F4807245F0100540
:10CA40001A831D841A8B22F44062B3E71A8C22F4F5
:10CA500080721204120C1A84998B1A8C21F0F30143
:10CA600092B2090422F42062090C324342F480722B
:10CA700041F0010199831A849A8B22F00C02C4E7D9
:10CA800038B50E4D044600680AF026F9D5F8C424DE
:10CA9000204652084FF6FF7142F082FA20460021EC
:10CAA000FFF764FF064BC5F88C3D05F68C51204618
:10CAB0000022BDE8384042F0B7B900BF502F002037
:10CAC00001250208036870B55E6A26B13346082264
:10CAD000BDE87040184704460D4601F1080600E025
:10CAE00023689B68204698470028F9D0236815F8EA
:10CAF000011B1B6820469847B542F1D170BD00BFAD
:10CB00000A44914217D010B40139541E11F8013F64
:10CB100008225840430010F0800F08BF400083F007
:10CB2000D50314BFD8B2C0B2013AF3D1A142EDD1BE
:10CB30005DF8044B704770472DE9F047164D0746E6
:10CB4000002095F9CD9A05F6D42684B007EB0108AC
:10CB500005F6745504464FF0B60A3368ABB193F846
:10CB60003830142B11D019F1020F01D04B450CD1E4
:10CB7000002269463046CDE90244CDE90078ADF89F
:10CB800008A08DF80D4036F07FFFE036B542E4D1C5
:10CB900004B0BDE8F08700BF4051002030B5044626
:10CBA000C06B83B060B9CDE900401D460846084B14
:10CBB000202107F0F3FFE06300B1056003B030BD52
:10CBC000044B1222002083F8C42A03B030BD00BFFA
:10CBD0002544010848400020836B83B930B583B0F9
:10CBE000CDE900030446154608461A461021074BB6
:10CBF00007F0D4FFA06300B1056003B030BD044B63
:10CC0000122283F8C42A0020704700BFC1430108E4
:10CC1000484000200C480D4BD0F88C1D10B40C4C33
:10CC2000C0F87C3D8A1E2231B0F8AA3D1B01A4FB4E
:10CC300003C3DB08A3F5B06322F8023F9142F3D1AE
:10CC40005DF8044B704700BF40510020A58D0208DD
:10CC5000CDCCCCCC70B5084C251D2E4614F8010B5C
:10CC600037F08AF928B1037805F8013BB442F5D1D1
:10CC700070BDFF23F8E700BF105F00202DE9F047EB
:10CC80001D4F012607F10805B2464FF03C094FF051
:10CC9000000817F8010B44F0D5F9044690B180F86C
:10CCA0000690C671FB7803F07F02012A18D013F0BA
:10CCB000800F20460DD185F8048044F08FFD85F863
:10CCC00005802C600136052E05F10805E1D1BDE88F
:10CCD000F08785F804A044F087FD85F805A0F0E70B
:10CCE0001B0605D40121204642F0E4FFFB78DEE775
:10CCF00044F07AFDF6E700BF185F00202DE9F04F01
:10CD0000DFF8FC91DFF8FCA183B009F10C060124E7
:10CD100019F8018BB8F1000F00F0C6804FEA181522
:10CD2000013D052D08F00F0200F2C1800AEB45031A
:10CD3000B3F8840040FA02F717F0010700F0D28040
:10CD400001239340013B1840554464F0BDFB95F826
:10CD50009030664F184407EBC00704237761FC71DD
:10CD6000BB71002302E0152B00F09E8003EB430211
:10CD70005F49895C41454FEA430B03F10103F2D15E
:10CD80005C4B1A4492F85911002900F0AD804046DE
:10CD900042F052FB0546284642F06EFB0378002B1A
:10CDA00040F08280534B5B44042283F8994183F81E
:10CDB0009821002D78D0002F5DD03B68287A03F1B0
:10CDC0003F4202F57E020AEB92224FF0010C92F8EC
:10CDD000982002F01F015209032A0CFA01F171D0C8
:10CDE000042A67D0022A75D0B7F804E0BEFA8EF2A2
:10CDF000C2F11F02C2F3CC0103EB810102F0070272
:10CE00000F6A92004FF00F0C0CFA02FC27EA0C0795
:10CE10000F620F6A90403843002208624FF0010B06
:10CE200011460BFA01FC3CEA0E0001F101011ED192
:10CE300018680327974020EA07001860D3F800809D
:10CE40000220904040EA08001860986820EA070035
:10CE5000986098689860586820EA0C005860586894
:10CE60005860D86820EA0700D860D868D8601029D0
:10CE700002F10202D5D1204B204AB3F8001EB3F8CC
:10CE8000023E0091002001340190B2FBF3F33046E2
:10CE90009BB22946E4B235F0B3FF0123092C737429
:10CEA00006F118067FF434AF03B0BDE8F08F002719
:10CEB000776156E7DFF850C0DCF830200A43CCF841
:10CEC000302091E7DFF840C0DCF840201143CCF877
:10CED000401089E7DFF830C0DCF844201143CCF87B
:10CEE000441081E777613CE70D4654E71431002098
:10CEF000A8300020502F00204051002040420F0059
:10CF0000445F0020504307080038024070B50446D3
:10CF100084B04FF400403FF083FC80B300234FF413
:10CF2000E131032590F904000293CDE900151A467A
:10CF30004FF400413FF0D5FC124BC3F8D00EF0B1D6
:10CF4000012C40F6980208BF4FF496620E480F4D30
:10CF5000A3F8DC2E4FF461710D4AC3F8E80E0A26DF
:10CF600083F8D44EC3F8D86EA3F8DE1EA3F8E01EF3
:10CF7000C3F8E45EC3F8EC2E012004B070BD0020BD
:10CF8000FBE700BF40510020A12502081102020862
:10CF90000502020841EA0203034300D1704710B5BD
:10CFA00007EE900A07EE101A2DED068BB8EEE79A01
:10CFB000DFED357A354CF8EEC78A07EE102A29EEF8
:10CFC000279AB8EEC78A0123B0EE490A84F8583F81
:10CFD00068EEA78A28EE278A65F0DAFCF0EE407A40
:10CFE000B0EE490AB0EE679A65F0F6FDF0EE409AB1
:10CFF000B0EE680A65F0CCFCB0EE40AAB0EE680A6C
:10D0000065F0EAFDF0EE408AB0EE480A65F0C0FC3B
:10D01000F0EE407AB0EE480AB0EE678A65F0DCFDCB
:10D0200069EE005A69EE886A29EE086A29EE807A6C
:10D030002AEE088A6AEE699A29EE0A9AB0EE655AD3
:10D0400004F60C73A8EEA65AE8EEA56AF0EE465A6E
:10D05000E8EEC75A60EE4A7AA8EEC67AC3ED168AA1
:10D0600083ED148AC3ED199A83ED1C9ABDEC068BEF
:10D07000C3ED157A83ED175AC3ED1B6AC3ED185A39
:10D0800083ED1A7A10BD00BF36FA8E3C4051002065
:10D090002DE9F041214E224F96F8833F87F8F93E63
:10D0A00006F5786607F6FC6500244FF0050816F8CB
:10D0B000010B20BB28600134032C05F10405F6D1D7
:10D0C00097F8F91ED7F8FC0EC94301F0010144F0AE
:10D0D00091FB97F8F91ED7F8000F81F00201C1F318
:10D0E000400144F087FB97F8F91ED7F8040F81F050
:10D0F0000401BDE8F041C1F3800144F07BBB43F083
:10D10000A1FF013401212860E3B210B180F806804C
:10D11000C371286842F0CEFDCEE700BF4051002029
:10D12000502F00202DE9F0413E4C3F4DB4F8886F60
:10D13000A5F8086F82B0002E44D194F8840F43F014
:10D1400081FF94F8852FC5F80C0F003A18BF012213
:10D1500085F80A2F48B194F8861F2B22002914BFA6
:10D1600011210121C28042F0A5FD002047F0E4FB1F
:10D170002E4B24221846002166F0B2FF0122CDE991
:10D1800000022B4B42F210722021002007F006FD16
:10D19000C4F8EC0298B1274A2749B2F8C4320160BA
:10D1A00026482749274DA4F8E8325E1CC4E9B70198
:10D1B000A2F8C462244AC4F8FC52C4F8E42202B0C3
:10D1C000BDE8F08194F8848F002240462B2142F084
:10D1D00089F90746404643F035FF0028C8D0002FA4
:10D1E000C6D02B22C5F8240FC280397AFCF794FAF6
:10D1F0004FF00008154AB2FBF6F3C3F34F0000905E
:10D200009BB23946CDF8048005F57160A4F88A6FA9
:10D2100035F0F6FDD5F8103FC3F8008085F8218F72
:10D22000A6E700BF40510020502F00201C540020D2
:10D23000C91A01088801002080DE0708CDCA040849
:10D2400071AC04087D4905089176040840420F003E
:10D250002DE9F84F254C94F8983F84F88C3F04F65C
:10D260008F77002604F6AC745FFA86FB0BF1010899
:10D270005FFA88F8012117F8010F42460E448A46EA
:10D2800042F030F94FF00009054640B3387804F811
:10D290000E9C04F80D9C04F80FBC04F810AC44F884
:10D2A000045C43F0CFFE18B180F806A080F8078038
:10D2B000297AFCF731FA0E4A0021284641F070FE27
:10D2C0000C4B23600C4B221D21462846C4E9013932
:10D2D00041F0AAFD697928684A4635F00DFD082E0F
:10D2E00004F11C04C0D1BDE8F88F00BF40510020FC
:10D2F00040420F00312D0408E9E80308F8B5344C2A
:10D3000050220021A4F17C0066F0EAFE0C210220EC
:10D3100066F0AEFE44F82C0C002853D02D49606F07
:10D32000B1F8C43224F87C3C0133A1F8C432FF21A7
:10D330000C2304F85C1C04F8313C40F68C2140F2CC
:10D34000DD53002624F82E1C24F85A3C40F6CA016E
:10D35000214B24F8581C44F8600C324694F83002F3
:10D3600044F8643C022104F8796C42F0BBF80546AD
:10D3700060B31A4F94F8300287F89C6FC7F8A85F23
:10D3800043F060FE08B10223C380297AFCF7C4F998
:10D390002846134A002141F003FE124A1249134B5A
:10D3A000C7F8AC1F0024111F2846C7F8B03FC7F8C4
:10D3B000B44F41F039FD697928682246BDE8F8404C
:10D3C00035F09ABC0A4B032283F8C42AF8BD00BF8B
:10D3D000386200208801002011EA03084051002033
:10D3E00040420F00F060002011E903080DEA030835
:10D3F000484000202DE9F04FC04F87B00B4604464F
:10D40000C022BF480393002166F06AFE97F83132CC
:10D410008BB9BC4DD5F83432002B7ED00022039856
:10D4200083F82C00012183F82D101A6383F82E2035
:10D4300007B0BDE8F08F97F83232002B7CD0DFF8D0
:10D44000D88298F84431012B00F0A180022B00F023
:10D450008180AD4EAB4D98F83AC198F836710FCE39
:10D4600005F5007404940FC40FCE0FC496E80700AE
:10D47000BCF1000618BF0126A44B85F83862072FBF
:10D4800084E80700C5F8183200F21881042F00F272
:10D490005581DFF86CA2DFF88CB20026039BB34203
:10D4A0004FF0030137DD1BF8019B08EB090309F17D
:10D4B000010793F83B41FFB220463A4642F012F88A
:10D4C000034620461C46002B00F0108143F0BAFDB5
:10D4D000CAF8140018B14FF003038371C77198F8AC
:10D4E000372198F83631F1B2002A00F0FD80E27958
:10D4F00082F00102009220464A46013661F04EF960
:10D50000002800F0F3804FF00103082E8AF8113054
:10D510000AF1180AC2D1049B9EE07D4E7D4C0FCECD
:10D520000FC40FCE0FC496E80700A4F1200384E8CF
:10D530000700C5F834327BE7774B039993F838211D
:10D54000704D003A204618BF0122FBF7A5F8C5F838
:10D5500034025FE798F83A31002B3FF47AAF98F83D
:10D560003631082B13D1684E664D684F0FCE05F546
:10D57000007404940FC40FCE0FC496E80700012373
:10D5800084E8070085F83832C5F8187299E05D4DD7
:10D59000624E039BC5F83C320FCE05F5E6740FC40E
:10D5A0000FCE0FC496E8070098F83AC10023BCEBF1
:10D5B000030C84E8070018BF4FF0010C19465848C7
:10D5C00098F8363187F86C324FF44C7285F838C2CF
:10D5D00087F834128B4666F083FD494B0593514B17
:10D5E000049305F51276D5F83C325B455EDD049A6E
:10D5F00012F8013B0492434493F83B41204641F02A
:10D60000F7FF8146204643F01DFD98F83731044668
:10D61000002B4DD099F8073083F0010A0AF0010978
:10D6200095F8380209F1010987F8339208B18AF0B8
:10D63000010A002C49D0A17989B141290FD03A4B78
:10D640003A493B4AC5F8E831012387F83432C5F836
:10D65000E411C5F8F0210023C5F83432DAE620469B
:10D6600047F0ACF94FEA49110BF1010B41F0090108
:10D670004FF0030371617060F46086F810A084F8C5
:10D6800007B0A371204642F015FB1AF0010F2046A7
:10D6900011D044F0A3F8059AF3685361BBF1080F69
:10D6A00002F1180306F1200605939CD1214BD3E724
:10D6B00099F807A0B2E744F097F8ECE7082F7FF459
:10D6C000E8AE1D4BC5F84032E3E6204647F076F958
:10D6D0004FEA491949F009010BF1010B71617060C2
:10D6E000F46086F810A0CDE7E27903E7104B0E4A0C
:10D6F000C5F82432C5F81C220023ADE738620020AB
:10D700003C000010001100104444070851C00608F6
:10D710001844070870640020502F00207044070848
:10D72000A86400209630002075D3040879D304083B
:10D730006DD30408CC1200100956050898F8393149
:10D74000064AC5F84022012B05D0022B06BFBCFAC1
:10D750008CF35B09002385F844329AE639560508B4
:10D760002DE9F0416E4F97F8A40D97F8A55D43F0B1
:10D7700069FC60B12D23C3802021044642F09AFA4F
:10D780000A2042F02BFD204647F00EF928B9DFF8B9
:10D790009881D8F8A035DA0001D5BDE8F081013DC7
:10D7A000092DFAD897F8A34DD4B940203FF038F8A6
:10D7B0000028F2D090F9043097F8751D092BC8BFE6
:10D7C000143B43440A2993F8A44500F09B8093F846
:10D7D000B03597F8A22D002A08BF1C46002CDCD0DB
:10D7E000204643F02FFC0546002800F083802D23BF
:10D7F000C380012142F05EFA0121084644F002F89C
:10D800002B68AA881A833C2042F0B4FD0021012035
:10D8100043F0F8FF97F8A53D002B4CD0414C002673
:10D820001FE02B68AA885A8342F0D8FC94F8F91EAE
:10D83000D4F8FC0E01F0010143F0DCFF94F8F91E6E
:10D84000D4F8040FC1F3800143F0D4FF2B68AA88F9
:10D850001A83782042F0C2FC97F8A53D01369E421B
:10D8600029DA94F8F91ED4F8FC0EC94301F001013D
:10D8700043F0C0FF94F8F91ED4F8040F81F00401BE
:10D88000C1F3800143F0B6FF7820002DC9D1782084
:10D8900042F0A4FC94F8F91ED4F8FC0E01F001014A
:10D8A00043F0A8FF94F8F91ED4F8040FC1F38001E7
:10D8B00043F0A0FFCDE797F8A33D9BB9D7F8A43D6F
:10D8C00003F0FF13B3F5803F7FF467AFD8F8A035BE
:10D8D00013F080537FF461AF87F8A53DBDE8F041B8
:10D8E00055F0AABC322042F045FD2846002142F006
:10D8F000E1F9E3E7012142F0DDF90121084643F0B7
:10D9000081FF80E7D8F8C8355B057FF546AF0FF09B
:10D91000DBFC00287FF441AF002C7FF461AF3CE7D3
:10D9200040510020502F00203862002070B51D4C5F
:10D9300004F2CC5682B028220021304666F0D0FB9B
